:040000008031102813
:100008007E14803120007F08E30082310222200024
:100018006308FF007E1009008031122864308400D4
:10002800003085000C308731F8278031A3308400F8
:10003800003085002D308731F8277E1020008B3165
:10004800382B20004203031D3D2840081F39003A81
:10005800031D3D282100B517033020004106031D6C
:100068003B280130D50055082100C5003D28210056
:10007800C50120004208031D080040081F39023A44
:10008800031D080044080F39003A03190800440802
:100098000F39D5000230550203180800203021001E
:1000A8004906031D0800B5172000C41B682844082A
:1000B8000F39C23E860087010108D5005508DA00CD
:1000C80044080F39BE3E742844080F39C03E8600E4
:1000D80087010108D5005508DA0044080F39BC3EED
:1000E800860087010108D5005508D90059188128CC
:1000F800FB30D5005508DA0582285A15C41B8A2812
:100108005A08D50044080F39C23E8F285A08D5002E
:1001180044080F39C03E8600870155088100033026
:100128004106031DB1285A0886008701811FA828A7
:10013800C41BA22844080F39BE3EA52844080F391D
:10014800BC3E8600870181145A0886008701011584
:100158005A0886008701811708000430D500550821
:10016800DA065A0886008701811FD5287F30D50016
:100178005A0886008701550881055A0886008701B4
:1001880001170030D1000530D0005A08D5005508B5
:10019800D2000130D3000030D4008D3121258031C8
:1001A800DA2820005A088600870101170430200049
:1001B800D5005508DA06D918E6285A0886008701B6
:1001C800811F0929C41BEC2844080F39BE3EEF28BB
:1001D80044080F39BC3E8600870181103B30D500AA
:1001E8005A0886008701550881050030D10005307E
:1001F800D0005A08D5005508D2000130D30000308D
:10020800D4008D312125803111293B302000D500C3
:100218005A088600870155088105200044080F39CF
:10022800983ED500D6010E30D63D5508D700560861
:10023800D800FE30D50057088600580887005508B2
:1002480081050800FE348134363481349C3481348D
:10025800FF340034013400340034FF3400340134F6
:10026800CA348134343403344D34003469340034AE
:1002780063340034723400346F340034633400342F
:100288006834003469340034703400342034003465
:100298005434003465340034633400346834003432
:1002A8006E3400346F3400346C3400346F340034EE
:1002B800673400347934003420340034493400344D
:1002C8006E340034633400342E3400340534013481
:1002D80009340234A134013409340134A13400341E
:1002E80005340934193401342934033415340034FD
:1002F800253401349534033475340134813402349F
:1003080095340134753405348134013405340134AD
:1003180009343034093431341534813425347F3488
:10032800753408349534023481340634C034C0340A
:100338002E3403344D3400346F34003475340034B3
:1003480073340034653400342034003449340034C4
:100358006E340034203400346134003420340034E6
:10036800533400347134003475340034613400344B
:10037800723400346534003420340034443400349A
:10038800653400346D3400346F3400340934023479
:1003980022340034013401340034C0343234093496
:1003A800043400340034013403340134023400349A
:1003B8000934213411340134003401342234323404
:1003C80000340734053481340334033400340134F1
:1003D8001234013400340234003400340034083458
:1003E800D834043400340034033400340134023483
:1003F800003401340434033409340434210049033B
:10040800031D122A3D008E1A122A90011214121688
:1004180002302000E00060082100C9003D001019EA
:10042800121D1F2AFB302000E00060083D009005E7
:100438008C31322482313D008E1C252A2000121175
:1004480008001018121C392A8331832382312100B5
:10045800121504302000E00060082100C900FE30B9
:100468002000E00060083D009005101A121E3F2A87
:100478008B31FA2382313D00101F662A121F512A40
:1004880073302000D0000030D100D2010130D300F9
:100498000030D4008D3121258231BF302000E000AA
:1004A80060083D0090058B31652382312000670884
:1004B8000319602A0130E7026708031D662A86319E
:1004C800CD2682313D00901A921E6D2A8C318E24E1
:1004D80082313D009018921C802AFF302000D00005
:1004E8007F30D100D2010130D3000030D4008D31EB
:1004F800212582313D00930104302100490203186F
:10050800882A2000121108003D00921DD92A2000D7
:10051800E201043062020318D92A3D00901DD92A4D
:100528000F082000E0006008EF006F0CE000E00C0E
:10053800600C0F39E1006108E900F730E00060085D
:100548003D00900520006F19AC2A6908BE3EAE2A0E
:100558006908BC3E8600870101080139E0000130C6
:10056800E00601086006FE39600681006908031D7F
:10057800C12A8E318B268231D02A72302000D000D9
:100588000030D1006F30E0006008D2000030D300A6
:10059800D4008D312125823101302000E00060082F
:1005A800E20704306202031C912A2000121108009D
:1005B800210012113D009301900198010E30210095
:1005C800D2009930D100D3015308031DFB2A5108EA
:1005D80086005208870081010130D1070030D23DE2
:1005E8000130D0005008D30753080319EB2A1630FE
:1005F8003D0091009F3097007B3092002100D4018C
:10060800083054020318212B5408D0000130D0358B
:10061800FF3E031D0B2B5035203E8600870100301E
:10062800C03F0030C13FC23FC33F0130D000500837
:10063800D40708305402031C082B3D000E179601FE
:100648000E120E13F7302100D00050083D0090051F
:100658002100B501AE01AF01B0013D009019262B74
:1006680001302100D0005008CA000130D0005008E5
:10067800CB00C701C801C601D401023054020318D7
:10068800612B5408C03E8600870181015408C23E90
:100698008600870181015408BC3E860087018101DC
:1006A8005408BE3E8600870181010130D000500801
:1006B800D40702305402031C452B2830D0005008C0
:1006C800C00016303D00980000302000A3004030E4
:1006D800A2000830A10004302100D00050082000FA
:1006E800A000A017ED0100302100BB000030BA00C7
:1006F8000030B9000030B800CC01C9010800210061
:1007080012113D009301900198010E30F2009930CA
:10071800F100F3017308031DA12B7108860072080C
:10072800870081010130F1070030F23D0130F0000F
:100738007008F30773080319912B16303D009100D8
:100748009F3097007B309200F40108307402031840
:10075800C62B7408F0000130F035FF3E031DB02BA6
:100768007035203E860087010030C03F0030C13F11
:10077800C23FC33F0130F0007008F407083074022C
:10078800031CAD2B3D000E1796010E120E13F73009
:10079800F000700890052100B501AE01AF01B0016D
:1007A8003D009019CB2B0130F00070082100CA00E1
:1007B8000130F0007008CB00C701C801C601F40180
:1007C800023074020318042C7408C03E86008701A6
:1007D80081017408C23E8600870181017408BC3E0D
:1007E8008600870181017408BE3E86008701810169
:1007F8000130F0007008F40702307402031CE82B83
:100808002830F00070082100C00016303D00980024
:1008180000302000A3004030A2000830A1000430BE
:10082800F0007008A000A017ED0100302100BB0007
:100838000030BA000030B9000030B800CC01C9015E
:10084800080020006A0886008701413FF500750806
:10085800F200F301730821003002031D352C7208E1
:100868002F0203183B2C2F08F2007208F5007508B8
:10087800F200F3017208AF027308B03BF401750887
:10088800740203185B2C7408483E8600870101082F
:10089800F2002C0886008701720881000130F200FE
:1008A8007208AC070130F2007208F407432C2F08D5
:1008B80030040319902C0830F20020006B0A8600DF
:1008C8008701720881004830F2000030F3006B089D
:1008D800023E860087017208C03F7308C13F6A085C
:1008E80086008701011B842C4830F2006B088600C3
:1008F8008701720881006B0886008701811708004C
:100908000830F2006B0886008701720881006B08C6
:1009180086008701811708000830F20020006B0A62
:1009280086008701720881004030F2000030F30031
:100938006B08023E860087017208C03F7308C13FFA
:100948000430F2006B0886008701720881006B088A
:10095800860087018117210031083208AE13200074
:100968006608031D08008631CD26080020004008CF
:100978001F39013A031D08004408031D080006300A
:1009880041060319E22CEE2C6D03031DEE2CDC301E
:100998002100B3008130B4000030B7000930DC2CEE
:1009A8006A302100B3008130B4000030B700323023
:1009B800B600C030F9007908B500EE2C20004308D5
:1009C800213A0319C82C033A0319D42C013A031904
:1009D800EE2CEE2C2000400E890C0339013A031D41
:1009E8000800322DCF302100B3000030B4000030B1
:1009F800B7000130B600C130F9007908B500080029
:100A08008030F90079082100B50020004308F9007A
:100A180079082100CF004F08F9007908F400200078
:100A280042088A31F6220800CE302100B300003097
:100A3800B4000030B7000130B6008130F900790801
:100A4800B50008008030F90079082100B5002000C1
:100A58004208F90079082100CE000800200041086A
:100A6800013A0319472D033A0319F62C013A0319E1
:100A7800182D0A3A0319472D033A0319042D013A90
:100A88000319262D472D08003D000E122100B51B25
:100A98008A2DAE1F5E2D0230F50075082000E80093
:100AA80021004808031D5A2D8731A3272100CB01B7
:100AB800CA0108000830F50020006B0A860087018B
:100AC800750881004030F5000030F6006B08023EE2
:100AD800860087017508C03F7608C13F0C30F500D5
:100AE8006B0886008701750881006B0886008701FE
:100AF80081170430F5002100400886008701750839
:100B08008100400886008701811708002000C01F67
:100B1800A22D0130F5007508E80021004708031DE3
:100B2800982D8731A32785312100CB01CA012000E8
:100B38006608031D08008631CD2608000230F5003E
:100B480075082000E8000830F5006B0A8600870168
:100B5800750881004030F5000030F6006B08023E51
:100B6800860087017508C03F7608C13F0430F5004C
:100B78006B0886008701750881006B08860087016D
:100B880081172100CB01CA0120006608031D080057
:100B98008631CD2608002100B5170E302000D70079
:100BA8009930D600D8015808031DEA2D560886004A
:100BB8005708870081010130D6070030D73D013042
:100BC800D5005508D80758080319DA2D0030F00069
:100BD800F1002030F2000030F30020308B31E023A8
:100BE80085313D000E172000D90102305902031843
:100BF8000F2E5908BC3E8600870181015908BE3E68
:100C08008600870181010130D5005508D9070230D7
:100C18005902031CFD2D0030F000F1000130F200F4
:100C28000030F3006E308B31E02385313D000E1328
:100C380028302000D50055082100C00020302000B1
:100C4800D5005508EA006A08D5005508EB004208A7
:100C5800D5005508ED006D08031D382E1030D5005D
:100C680055082100C900080000302000D1000130DB
:100C7800D0006D30D5005508D2000130D3000030C7
:100C8800D4008D31212520302000D50055082100C1
:100C9800C9000800803020004006031D0800C0304D
:100CA800F00070082100B500C02EEC302100B30020
:100CB8008130B4000030B7001230B60008002000C0
:100CC8004208031D962E4208F000F101F035F10D9F
:100CD8003430700784008130713D8500003F210069
:100CE800B300013FB4003408F1003308F0000230CB
:100CF8007007840071080318710A85000008F20063
:100D08007208B6003408F1003308F00003307007A9
:100D1800840071080318710A85000008F20072083F
:100D2800B70008002100B501080003302000420286
:100D38000318BA2E4208F000F101F035F10D263003
:100D4800700784008130713D8500003F2100B300A9
:100D5800013FB40033088400340885000008F0001F
:100D6800F1017008B6007108B70008002100B5014C
:100D780008002100B501080020004308013A0319C2
:100D8800592E033A0319632E013A0319992EBD2EE1
:100D9800080021004A08031D08000130F00070080F
:100DA800CA004B08031D08000130F0007008CB0092
:100DB800023020006806031DF22E2100400A86003A
:100DC800870181014830F0004008860087017008DB
:100DD8008100400886008701811708002000680309
:100DE800031D08002100C4010830F00020006A0A31
:100DF80086008701700881004030F0000030F10063
:100E08006A08023E860087017008C03F7108C13F2A
:100E18000430F0006A0886008701700881006A08BB
:100E28008600870181170130F00070082100C40096
:100E38000830F00020006B0A8600870170088100E6
:100E48004030F0000030F1006B08023E8600870158
:100E58007008C03F7108C13F8030F0006B08860001
:100E6800870170088100080021004008860087017A
:100E78000030011B0130F5000430F3007308C00690
:100E880008304906031D572F200042087F393D00CE
:100E9800960016080319522F1030532F0430F30010
:100EA80073082100C90020006803031D9A2F4830E9
:100EB800F3000030F40021004008023E860087015C
:100EC8007308C03F7408C13F8F319B2787310230B8
:100ED80020006C06031D7D2F0430F300210040081C
:100EE8008600870173088100400886008701811702
:100EF80008007508031D8D2F4830F30021004008B5
:100F080086008701730881004008860087018117E1
:100F180008000830F30021004008860087017308A4
:100F28008100400886008701811708002100AE1F54
:100F3800A02F31083208AE132000E8010800210074
:100F4800C701C801023020006806031DCA2F0830F7
:100F5800F3006B0A86008701730881004830F300AC
:100F68000030F4006B08023E860087017308C03F1A
:100F78007408C13F4830F3006B0886008701730886
:100F880081006B0886008701811708002100370857
:100F980020004702031DD42F2100360820004602F6
:100FA8000318DD2F47082100B7002000460821005C
:100FB800B6008F319B274830F3000030F400210041
:100FC8004008023E860087017308C03F7408C13F8D
:100FD8004830F30040088600870173088100400804
:100FE8008600870181170800640080010131890BA0
:040FF800F92F003499
:101000008E31FE2E8F31012F8F31362F8F31012FF0
:101010008F31362F8E31E12E8E31EA2E8F31202FF7
:101020008E31F02E8E31ED2E8F31042F8F31142F13
:101030008F31362F8B31372B8B31252B8B31272B53
:101040008B31292B8B312B2B8B31DF2B8B31C92B08
:101050008B31CC2B8B31CF2B8B31D22B8B31C62BC1
:101060008B31B02B8B31B32B8B31B62B8B31B92B12
:101070008B31AD2B8B31972B8B319A2B8B319D2B59
:041080008B31A02BE5
:10158200F0007008003A0319CA2A013A0319CA2A5C
:10159200CA2A08002100D0005008003A0319D52AAF
:1015A200013A0319D52AD52A08002100A801A80A60
:1015B200A901A301A601A7011A30FD007D08F700C9
:1015C20001308C316E240800F300F201731CED2A05
:1015D2007008F1007108F2070310F00D0310F30C0C
:1015E2007308031DE72A72080800F8007808031D33
:1015F20008007408F5000330F6007608F000780859
:101602008A31E522A93EF70001307707860087017B
:10161200750881000800F100162B01308B31C723B9
:101622008B3101308A31C12208007108003A031956
:101632000E2B013A0319212B033A0319212B212BDB
:1016420008002100D0002D2B0E1008008E1008007B
:101652000E1108008E1108005008840005300402A3
:1016620003180800883104351A3E82000800003051
:101672008B317D238B318231DC228B318C311624EC
:101682008B31203021004902031C422B3D008E1871
:10169200422B8C314F248B31422B2100D0005A2B0C
:1016A200031020008C1D03140030093D0800003097
:1016B200080021005008003A0319582B013A031977
:1016C200512B632B0030080001302100B807003095
:1016D200B93D0030BA3D0030BB3D4608031D08004D
:1016E2000130F0007008CC074C08031D0800FF30E1
:1016F200F0007008CC0008002100D100882B0130D6
:101702008B3122238B3101308A31CB220800210018
:101712005108003A0319802B013A0319942B033A1A
:101722000319942B942B0800F000A32B22000E1017
:10173200080022008E10080022000E11080022006C
:101742008E11080070088400053004020318080096
:1017520088310435383E82000800F000BC2B22009C
:101762000E14080022008E14080022000E15080034
:1017720022008E1508007008840005300402031848
:101782000800883104352E3E82000800F000D52B77
:1017920021000E10080021008E10080021000E11F9
:1017A200080021008E110800700884000530040230
:1017B2000318080088310435243E82000800F60030
:1017C2007608F4007408F5000130F2020030F33BB1
:1017D200720A0319730A031908007008F4007508E5
:1017E20086008701740881000130F4007408F5074F
:1017F200E52B3D001215EF302000D50055083D00C5
:1018020090058E1401302000D50055082100C60035
:10181200CC0175302000D0000030D100D201003060
:10182200D300D4008D312125080021004908031D71
:1018320008003D008E019201163091009F30970002
:101842007B309200210012150B178B173D008E1969
:101852002C2C8E15272C01302100D0005008C900F5
:1018620008002100C60174302000D0000030D100F1
:10187200D2010030D300D4008D3121258C313D00BE
:101882008E101211101D4C2CFB302000D500550873
:101892003D009005432C2100CC01080001308B3122
:1018A2004E238C312100D1005108D2002408520667
:1018B200031908005208D1005108A4005208031D60
:1018C20008002808031D672C0130682C0030D10065
:1018D2005108A800AB01A3010800FC00771D762C7B
:1018E200F0017C088C31E5248C31F71C7D2CF00151
:1018F200F00A7C088C31E5247C08983EF800F90156
:101902000E30F93D7808FA007908FB007A08860063
:101912007B0887007708810008003D00181CAF2C67
:1019220020006A088600870180300106031DAD2C65
:10193200210040088600870184300106031DAD2C7A
:101942000C30F00020006A088600870170088100D0
:101952006A088600870181173D001810DF30F00009
:10196200700890050800023020006806031DBC2C98
:101972008431252408002000E80121004408031DC9
:10198200E22C0830F60020006B0A860087017608F8
:1019920081004030F6000030F7006B08023E8600FE
:1019A20087017608C03F7708C13F0C30F6006B080C
:1019B20086008701760881006B08860087018117FF
:1019C20008002100C4010800F5002030F100710870
:1019D200F6007008F1000130F135890BED2C750825
:1019E200F2000130F235FF3E031DF32C7235710710
:1019F200F3000130F335FF3E031DFB2C7335F40079
:101A02007408F60776088600870181137008031DA3
:101A12000F2D7608F1007508C23E132D7608F100ED
:101A22007508C03E8600870171088100760886002D
:101A3200870101137608043E86008701011708001A
:101A42003C2D8E313E268D318F31372708008E3165
:101A52003E268D3101308B310C2308008E313E261B
:101A62008D3102308B310C2308008A31D6220800D6
:101A72008431BA24080020005108003A0319452D88
:101A82007F3A03195F2D642D5008013A0319362D50
:101A9200033A0319642D013A0319392D063A031941
:101AA200642D773A0319642D013A0319222D073A5E
:101AB20003192F2D013A0319282D642D5008FF3ADE
:101AC2000319642D642D08002000EC01E6012100B9
:101AD200C701C801C4012000E8017F30DC002100F9
:101AE20040088600870120005C0881050430DC0084
:101AF2005C082100C0067F302000DC002100400885
:101B02008600870120005C0881050430DC005C0847
:101B12002100C0067F302000DC006B0886008701B0
:101B22005C0881052100B501B601B701AE01AF0124
:101B3200B0018E31D9268D3100302000D100033022
:101B4200D000D2010030D300D4008D3121258D3157
:101B5200853148250800F50070080319B32D750872
:101B6200C03EB52D7508C23E860087010108F3000C
:101B72007308F6007608031DC02D003008007108B6
:101B8200F3000030F4007608023E860087017308F5
:101B9200C03F7408C13F7208F300760A86008701CD
:101BA200730881004030F3007608860087017308CD
:101BB20081057608860087018115760886008701EF
:101BC200811770080319EA2D0430F3007508C03E2E
:101BD200EE2D0430F3007508C23E860087017308BB
:101BE2008106760808002000C801C901252E2100BF
:101BF200B51721004503031D312E2000C814312ED4
:101C02002100B517312E2100B5172000C41B0D2E5F
:101C120044080F39C23E102E44080F39C03E8600D8
:101C220087010108F0007008F10071088600870141
:101C3200811F312E710886008701011D312E01306E
:101C4200F0007008C800312E40081F39003A03190D
:101C5200F82D013A0319012E033A0319042E312EED
:101C62002100B51F08004830B3000030B40035141D
:101C72000230F0007008B60008003D008E1C7F2E76
:101C820001308B3195230800200064036504031D95
:101C92004F2E01308B31AE238E31852E4B302000FA
:101CA20064066504031D5A2E01308B3195238E3153
:101CB200852E0030200065029730782E20006403C4
:101CC2006504031D692E01308B31AE238E31852EC2
:101CD2003230200064066504031D742E01308B31FE
:101CE20095238E31852E033020006502B73003190B
:101CF2006402031C852EE401E501852E21004908BA
:101D0200203A0319452E5F2E01302000E4070030EF
:101D1200E53D08002D302000DD005D08E7006F087A
:101D2200FD39031DCE2E6F363F39DD000130DD3522
:101D3200FF3E031D982E5D35203EDE005E08EA0060
:101D42006A08DD005D08EB000430DD005D08EB068B
:101D52006A0886008701010C890C0F390D3A031DB0
:101D6200CB2E40308600870120006A08023E8400A4
:101D72008501003FDD00013FDE005D0884005E0852
:101D820085000830DF0012001E00DF0BC42E8D31EB
:101D9200652508008C31B4240800FD3020006F0551
:101DA200DD0004305D06031D080087313827080076
:101DB2002000400E890C0339003A031D08002B2F26
:101DC2002100B51708302000DB005B082100C900A4
:101DD200080086314E2608008531CF2508006D3077
:101DE2002100B3000030B400351401302000DB00C4
:101DF2005B082100B600B51708008D31F4250800F4
:101E0200803125200800200044086E3E2100B300E6
:101E12000030B400351401302000DB005B082100E3
:101E2200B600B51708002100B51720004208DB00F4
:101E320044086E3E860087015B088100080000307E
:101E4200D1000230D000D2010030D300D4008D3155
:101E5200212508002000410884000D3004020318E7
:101E6200080088310435003E82000800203021003D
:101E72004906031D080029080319442F2908860072
:101E82008701811B08000130A6070030A73D903072
:101E92002606031D592F2703031D592FA601A7014B
:101EA2000130F7007708A507043025020318A501C1
:101EB2002803031D762F2010A010201125082C3E88
:101EC200840081300318013E85000008F70077087E
:101ED200A1002508303E840081300318013E8500B0
:101EE2000008F7007708A200892FA0010030A100A6
:101EF2000030A2002A080319822F0130F700770868
:101F0200AB072303031D892F2B082A02031808009D
:101F1200F001F00AA030F7007708F1000330F80072
:101F22007808F20001308D31AC25F90079082100E2
:101F3200A90008000830F0007008F200003021000B
:101F420037020830031936020318B82F3608F0009A
:101F52007008F20020006C08031DB12F0130B52F6C
:101F62006C03031DB82F0230F0007008EC007208F9
:101F7200F000F10170082100B6027108B73B720847
:101F8200F000400A86008701700881004830F000A6
:101F92007008CD00351CE32FFC2F33088400340871
:101FA20085000008F0004D08860087017008810056
:101FB2000130B3070030B43D0130F0007008CD07A6
:101FC2000130F202720803190800CE2F3308840090
:101FD200340885000008F0004D088600870170086B
:101FE20081000130B3070030B43D0130F0007008C9
:0E1FF200CD070130F202720803190800E72F34
:020000040001F9
:04000E00A2CF4FDF4F
:00000001FF
