:040000000BEF00F012
:100008005E82FACF1FF0FBCF20F088ED0BF074EF83
:100018000CF004012205D8A411D0040120511F0BB3
:100028000009D8A40BD00001758F030E0401211913
:10003800D8A402D0010E01D0000E4C6E040122514A
:10004800D8A41200040120511F0B020AD8A41200E0
:10005800040124510F0B0009D8B4120004012451E3
:100068000F0B176E020E17601200200E5118D8A43D
:1000780012000001758F040124BF1BD00401245114
:100088000F0B176E1750020D7C0EF324D96E000E5D
:10009800F420DA6EDECF1BF0DDCF1CF00401245112
:1000A8000F0B176E1750010D910EF324D96E000E29
:1000B8001AD0040124510F0B176E1750020D780E39
:1000C800F324D96E000EF420DA6EDECF1BF0DDCFFC
:1000D8001CF0040124510F0B176E1750010D8F0EE1
:1000E800F324D96E000EF420DA6EDF501A6E1AB0BF
:1000F80002D01B9401D01B84040124BF0BD004013F
:1001080024510F0B176E1750020D7C0EF324D96E75
:10011800000E0AD0040124510F0B176E1750020D60
:10012800780EF324D96E000EF420DA6E1BC0DEFFC1
:100138001CC0DDFF030E04012119D8A42FD01BC059
:10014800D9FF1CC0DAFFDFAE1CD0040124BF0BD0DE
:10015800040124510F0B176E1750010D910EF32453
:10016800D96E000E0AD0040124510F0B176E1750D8
:10017800010D8F0EF324D96E000EF420DA6E000103
:10018800DF821BC0D9FF1CC0DAFF000EDB841BC056
:10019800D9FF1CC0DAFF000EDB8E1200040E1B1AFA
:1001A8001BC0D9FF1CC0DAFFDFAE1BD01BC0D9FFB4
:1001B8001CC0DAFF7F0EDF161BC0D9FF1CC0DAFF98
:1001C800000EDB8C000E106E050E0F6E1BC011F0BA
:1001D8001CC012F0000E146E020E136E95EC0AF09D
:1001E80006D01BC0D9FF1CC0DAFF000EDB8C040E42
:1001F8001B1A1AB206D01BC0D9FF1CC0DAFFDFAE2B
:1002080031D0040124BF0BD0040124510F0B176E09
:100218001750010D910EF324D96E000E0AD0040177
:1002280024510F0B176E1750010D8F0EF324D96E42
:10023800000EF420DA6E0001DF921BC0D9FF1CC04B
:10024800DAFF3B0EDF16000E106E050E0F6E1BC098
:1002580011F01CC012F0000E146E020E136E95EC15
:100268000AF006D01BC0D9FF1CC0DAFF3B0EDF1610
:10027800040124510F0B176E1750010D700EF32453
:10028800186E0F0EF420196E18C0D9FF19C0DAFFC6
:10029800FE0EDF161200A09A000E6A6E000E686E3F
:1002A800000E706E710E2D6E0F0E2E6E000E306EDB
:1002B800000E2F6E000E326E010E316EE8EC0DF05E
:1002C800160E6F6E9F0E6B6E7B0E696E000E000130
:1002D800BC6F070E0001BC6501D010D00001BC51F5
:1002E800040D000EF324D96E040EF420DA6EDE6AD3
:1002F800DE6ADE6ADD6A0001BC2BEBD76D8C000E6E
:100308006E6E6D986D9C6896000E0001756F000EFC
:1003180000016D6F000E00016F6F000E6E6F68B602
:10032800F2D7010E526E010E536E000E4E6E000E85
:100338004F6E000E4D6E000E0001BC6F010E0001E5
:10034800BC6501D033D00001BC51020D780EF324F6
:10035800D96E000EF420DA6E000EDE6E000EDD6E31
:100368000001BC51020D7C0EF324D96E000EF4205E
:10037800DA6E000EDE6E000EDD6E0001BC51010D5E
:100388008F0EF324D96E000EF420DA6E000EDF6EA5
:100398000001BC51010D910EF324D96E000EF4201A
:1003A800DA6E000EDF6E0001BC2BC8D7080E000104
:1003B800786F040E0001796F160E706E040E04013A
:1003C800036F200E026F080E0401016F040E040172
:1003D800006F0401008F000E596E000E336E000E80
:1003E800346E000E356E000E366E000E556E000E21
:1003F800516E1200A09A000E6A6E000E686E000E12
:10040800706E710E016E0F0E026E000E046E000EFD
:10041800036E000E066E010E056E42EC0EF0160E0F
:100428006F6E9F0E6B6E7B0E696E000E096E070E67
:10043800096401D00ED00950040D000EF324D96EC2
:10044800040EF420DA6EDE6ADE6ADE6ADD6A092AE4
:10045800EED76D8C000E6E6E6D986D9C6896000ED2
:100468000001756F000E00016D6F000E00016F6FC7
:10047800000E6E6F68B6F2D7010E526E010E536E03
:10048800000E4E6E000E4F6E000E4D6E000E096E81
:10049800010E096401D02ED00950020D780EF32404
:1004A800D96E000EF420DA6E000EDE6E000EDD6EE0
:1004B8000950020D7C0EF324D96E000EF420DA6E7A
:1004C800000EDE6E000EDD6E0950010D8F0EF32456
:1004D800D96E000EF420DA6E000EDF6E0950010DA1
:1004E800910EF324D96E000EF420DA6E000EDF6E42
:1004F800092ACED7080E0001786F040E0001796F23
:10050800160E706E040E0401036F200E026F080EA3
:100518000401016F040E0401006F0401008F000E36
:10052800596E000E336E000E346E000E356E000EDE
:10053800366E000E556E000E516E1200800E0401CC
:100548002019D8A41200C00E0001756F89D0E80EDA
:100558000001726F7F0E0001736F000E0001776F4C
:10056800120E766F120004012251D8A444D004015F
:100578002251020DF70EF324F66E7E0EF420F76E6C
:100588000900F5CF72F00A00F5CF73F0020E0001F2
:100598007225016E000E00017321026E01C0F6FF84
:1005A80002C0F7FFF86A070EF76403D00800F55099
:1005B80005D0F6CFE9FFF7CFEAFFEF500001766FDD
:1005C800030E00017225016E000E00017321026EF8
:1005D80001C0F6FF02C0F7FFF86A070EF76403D000
:1005E8000800F55005D0F6CFE9FFF7CFEAFFEF5046
:1005F8000001776F1200000E0001756F1200030EE4
:100608000401226125D004012251020DE90EF324D0
:10061800F66E7E0EF420F76E0900F5CF72F00A0030
:10062800F5CF73F072C0F6FF73C0F7FFF86A070ED4
:10063800F76403D00800F55005D0F6CFE9FFF7CFEF
:10064800EAFFEF50016E01500001766F776B1200E0
:10065800000E0001756F1200000E0001756F120088
:1006680004012351010AD8B472D7030AD8B47BD73E
:10067800010AD8B4C4D7F0D7200E5118D8A4120054
:100688000001665100016711D8B407D066C0D9FFD0
:1006980067C0DAFF0001DFBE12000001634B642B64
:1006A8000001630500016411D8A40ED0000E0001FA
:1006B800646F000E636F0001622B00016251D8B4B1
:1006C80003D0000E0001626F00016505D8A45ED05A
:1006D800050100910501009305010095000E050133
:1006E800016F000E0501026F39C03FF03AC040F0BB
:1006F8001DEC09F003C039F004C03AF03ABE08D046
:10070800700E395C170E3A58D8A002D0050102695C
:100718003AAE09D0910E395CE80E3A58D8B003D0F9
:10072800010E0501026F3BC041F03CC042F0CDEC28
:1007380008F003C03BF004C03CF03CAE08D0910E7A
:100748003B5CE80E3C58D8B002D0050101693CBEBC
:1007580009D0700E3B5C170E3C58D8A003D0010E90
:100768000501016F81A402D00501008100016851D3
:10077800D8B402D00001692B00016005D8A406D0C6
:10078800000169510001685DD8B01200010E016EC8
:10079800000E026E050E036E030E046E010E70EC61
:1007A80008F001C066F002C067F012005104D8B426
:1007B8006DBA06D0000E686E69806988020E516EA7
:1007C80068B469A403D06894B7EC0DF06DA202D0A8
:1007D800A19A120068B069A006D0FEEC01F0A08AC8
:1007E800040E516E689068B869A802D02CEC0EF01F
:1007F80068AC1AD069AC0ED0000E106E730E0F6E76
:10080800000E116E000E126E000E146E010E136EA5
:1008180095EC0AF0689CADEC0EF05450D8A4540640
:100828005450D8B44FEC07F068BA69AA02D097ECD4
:100838000CF068B269A20FD07F0E106E0F68000E20
:10084800116E000E126E000E146E010E136E95ECF2
:100858000AF0000E6A6E040E516002D0A19A1200CE
:1008680069A639D0000E1E6E030E1E6401D033D067
:1008780068A631D06CCF5BF05B30E832E8320F0B02
:10088800576E68965BB407D05750010D910EF3244C
:10089800D96E000E06D05750010D8F0EF324D96E75
:1008A800000EF420DA6E0001DF705750D8A403D090
:1008B80006EC0AF00ED0000E106E720E0F6E5B0E74
:1008C800116E000E126E000E146E000E136E95EC73
:1008D8000AF01E2AC9D7A19A120020EE01F045504D
:1008E800D9264650DA22DF50026E025000016E5DB2
:1008F800000E6F59D8A06EC002F0025000016E5F62
:10090800000E6F5B000E016E12D00150010D280E13
:10091800F324D96E040EF420DA6E6AC0E1FF6BC0CE
:10092800E2FFDFCFE7FF00016A4B6B2B012A025081
:10093800015CD8A0EAD700016E5100016F11D8B44C
:1009480032D020EE01F04750D9264850DA22080E5E
:10095800DF6E20EE02F04750D9264850DA22280EE2
:10096800DE6E040EDD6E45C0D9FF46C0DAFFDFBC7F
:100978000DD047C0D9FF48C0DAFF480EDF6E47C028
:10098800D9FF48C0DAFF000EDB8E120047C0D9FF3E
:1009980048C0DAFF080EDF6E47C0D9FF48C0DAFF4B
:1009A800000EDB8E120020EE01F04750D926485089
:1009B800DA22080EDF6E20EE02F04750D9264850A2
:1009C800DA22200EDE6E040EDD6E47C0D9FF48C065
:1009D800DAFF040EDF6E47C0D9FF48C0DAFF000E09
:1009E800DB8E00016D9F5050D8A412004FEC07F029
:1009F8001200040120511F0BE806D8A412000401BC
:100A08002451D8A41200060E04012119D8B41FD00D
:100A180027D05904D8A424D09F0E0001726F7F0EEE
:100A28000001736F000E0001776F090E0ED0C00E23
:100A38000001756F15D02D0E0001726F7F0E000139
:100A4800736F000E0001776F320E766FF0D70401D6
:100A58002351210AD8B4DDD7030AD8B4ECD7010A48
:100A680004012039E832030BE806D8A4120030D07C
:100A78005D0E0001726F000E0001736F000E000121
:100A8800776F010E766FC10E0001756F1200800E30
:100A98000001756F23C45DF05DC001F004012251AF
:100AA80066EC0DF012005C0E0001726F000E000182
:100AB800736F000E0001776F010E766F810E0001D3
:100AC800756F1200800E0001756F22C45CF0120071
:100AD80004012151010AD8B41200030AD8B4C8D7B6
:100AE800010AD8B4E0D70A0AD8B41200030AD8B465
:100AF800CED7010AD8A41200E5D76D98000175BFBA
:100B080039D000016DAF0BD0020E566E4F50D8B4DD
:100B18006DEC09F0000E536E000E526E120020EEBE
:100B280001F04750D9264850DA22080EDF6E20EE31
:100B380002F04750D9264850DA22200EDE6E040E05
:100B4800DD6E47C0D9FF48C0DAFF0C0EDF6E47C024
:100B5800D9FF48C0DAFF000EDB8E78C0D9FF79C014
:100B6800DAFF040EDF6E78C0D9FF79C0DAFF000E15
:100B7800DB8E1200040120AF10D0010E566E4E50CD
:100B8800D8B46DEC09F0000E536E000E526E505042
:100B9800D8A412004FEC07F01200020E566E20EE99
:100BA80001F04750D9264850DA22080EDF6E20EEB1
:100BB80002F04750D9264850DA22200EDE6E040E85
:100BC800DD6E47C0D9FF48C0DAFF040EDF6E47C0AC
:100BD800D9FF48C0DAFF000EDB8E000E536E000E00
:100BE800526E5050D8A412004FEC07F012000401C6
:100BF8002039E832030B0009D8A412004FD00001B5
:100C0800758F080E516E1200A2EC02F0120074ECFF
:100C180006F01200590E0001726F000E0001736F8A
:100C280000017581010E0001766F0001758F1200B9
:100C380011EC08F012000DEC00F012000401245130
:100C4800010D5A0EF3240001726F000EF42000010A
:100C5800736F00017581010E0001766F0001758FB9
:100C680012000001758F04012451010D5A0EF3245E
:100C7800D96E000EF420DA6E22C4DFFF1200000ED7
:100C8800106E020E0F6E000E116E000E126E000E28
:100C9800146E000E136E95EC0AF012000401215137
:100CA800000AD8B4C5D7010AD8B4C5D7020AD8B43F
:100CB800C2D7060AD8B4A3D7030AD8B4A5D7010A5D
:100CC800D8B4DDD70F0AD8B4A5D7010AD8B49FD7AE
:100CD800030AD8B4B3D7010AD8B4C3D7070A120095
:100CE8000001758F710E016E0F0E026E000E046EFC
:100CF800000E036E000E066E010E056E42EC0EF03D
:100D0800000E016E040E026E000E046E000E036EDD
:100D1800000E066E200E056E42EC0EF06D8C000E75
:100D2800176E010E176401D016D01750010D8F0EE3
:100D3800F324D96E000EF420DA6E000EDF6E175021
:100D4800010D910EF324D96E000EF420DA6E000E18
:100D5800DF6E172AE6D75A0E016E000E026E000EDD
:100D6800046E000E036E000E066E010E056E42EC58
:100D78000EF06D9C080E0001786F040E0001796F6B
:100D8800000E456E040E466E45C047F046C048F05A
:100D980022C459F05950D8A403D0100E516E120035
:100DA800000E106E010E0F6E590E116E000E126EAF
:100DB800000E146E010E136E95EC0AF0200E516EA3
:100DC8001200080E016E0001775111E1080E0001B2
:100DD800765DD8B00CD076C001F05850D8A402D0B7
:100DE800010E04D05804D8A402D0020E586E015047
:100DF8000001765F000E775B000120EE01F078516C
:100E0800D9267951DA2201C0DFFF280E496E040E77
:100E18004A6E000175A11CD03AD072C0F6FF73C0AB
:100E2800F7FFF86A49C0D9FF4AC0DAFF070EF7642E
:100E380003D00800F55005D0F6CFE9FFF7CFEAFF59
:100E4800EF50DF6E0001724B732B494A4A2A0106A4
:100E58000150D8B41200E1D772C0F6FF73C0F7FF93
:100E6800F86A49C0D9FF4AC0DAFF070EF76403D011
:100E78000800F55005D0F6CFE9FFF7CFEAFFEF50AD
:100E8800DF6E0001724B732B494A4A2A0106015052
:100E9800D8B41200E1D75250D8A41200010E526EF5
:100EA8005350D8A41200010E536E020E5618D8A43F
:100EB80016D0000120EE01F07851D9267951DA22B6
:100EC800000EDF6E78C0D9FF79C0DAFF480EDF6EFA
:100ED80078C0D9FF79C0DAFF000EDB8E1200560405
:100EE800D8A41200000E4B6E20EE01F04550D92612
:100EF8004650DA22080EDF6E20EE02F04550D92661
:100F08004650DA22200EDE6E040EDD6E45C0D9FF93
:100F180046C0DAFF040EDF6E45C0D9FF46C0DAFFCF
:100F2800000EDB8E010E4B6E20EE01F04750D926E5
:100F38004850DA22080EDF6E20EE02F04750D9261C
:100F48004850DA22200EDE6E040EDD6E47C0D9FF4F
:100F580048C0DAFF800EDF6E120078C0D9FF79C072
:100F6800DAFF000EDFBC010E026E040E0001781BD2
:100F7800080E5118D8A40BD0040122517F0B6E6EB5
:100F88006E50D8B402D0100E01D0040E516E560423
:100F9800D8A43BD0000120EE02F07851D92679512F
:100FA800DA22280EDE6E040EDD6EE5EC06F0020E87
:100FB8005818D8A40DD078C0D9FF79C0DAFF040E2C
:100FC800DF6E78C0D9FF79C0DAFF000EDB8E120021
:100FD8000250D8A40DD078C0D9FF79C0DAFF480EE6
:100FE800DF6E78C0D9FF79C0DAFF000EDB8E120001
:100FF80078C0D9FF79C0DAFF080EDF6E78C0D9FF54
:1010080079C0DAFF000EDB8E120000016DAF02D04E
:1010180000016D9F000E566E1200000E0401286F2D
:10102800000E0401296F3DD00001758F040128814D
:101038004C04D8A442D0040128833FD00001758F06
:101048003CD00001758F040124BF0BD0040124514A
:101058000F0B016E0150020D7C0EF324D96E000EA9
:101068000AD0040124510F0B016E0150020D780EB5
:10107800F324D96E000EF420DA6EDECF02F0DDCF55
:1010880003F002C0D9FF03C0DAFFDFAE16D002C0FA
:10109800D9FF03C0DAFFDFA410D0010E0401286FC6
:1010A8000CD0040120511F0B000AD8B4BDD7010A87
:1010B800D8B4C4D7030AD8B4C4D7000175AF120096
:1010C800280E0001726F040E0001736F0001758114
:1010D800020E0001766F1200056E0150D8B407D0D9
:1010E8000550020D780EF324D96E000E06D0055077
:1010F800020D7C0EF324D96E000EF420DA6EDECFDA
:1011080006F0DDCF07F006500710D8A405D0000E72
:10111800016E000E026E120020EE02F00650D92673
:101128000750DA2202C0DEFF03C0DDFF20EE01F027
:101138000650D9260750DA2204C0DFFF06C0D9FFBF
:1011480007C0DAFF400EDF1606C0D9FF07C0DAFF76
:10115800000EDB8606C0D9FF07C0DAFF000EDB8E63
:101168000150D8B407D00550020D780EF324D96E7B
:10117800000E06D00550020D7C0EF324D96E000E29
:10118800F420DA6E040EDF1A06C001F007C002F080
:101198001200C580C5B0FED7EDEC0EF0D00EF0EC15
:1011A8000BF0076E086A07BE0806EDEC0EF03D0E60
:1011B800F0EC0BF0076E086A07BE0806EDEC0EF0BF
:1011C800C582C5B2FED7EDEC0EF0D10EF0EC0BF0F7
:1011D800076E086A07BE0806EDEC0EF0CBEC0EF0C1
:1011E800056E05500B6E0C6AEDEC0EF0C59AC588BD
:1011F800C5B8FED7EDEC0EF0CBEC0EF0056E055041
:101208000D6E0E6AEDEC0EF0C58AC588C5B8FED71E
:10121800C584C5B4FED70B50066E056A0D5005107F
:10122800096E0E5006100A6E09C003F00AC004F0D9
:101238001200C580C5B0FED7EDEC0EF0D00EF0EC74
:101248000BF0076E086A07BE0806EDEC0EF03B0EC1
:10125800F0EC0BF0076E086A07BE0806EDEC0EF01E
:10126800C582C5B2FED7EDEC0EF0D10EF0EC0BF056
:10127800076E086A07BE0806EDEC0EF0CBEC0EF020
:10128800056E05500B6E0C6AEDEC0EF0C59AC5881C
:10129800C5B8FED7EDEC0EF0CBEC0EF0056E0550A0
:1012A8000D6E0E6AEDEC0EF0C58AC588C5B8FED77E
:1012B800C584C5B4FED70B50066E056A0D500510DF
:1012C800096E0E5006100A6E09C003F00AC004F039
:1012D8001200000E4E6E000E4F6E020E5618D8A465
:1012E8001FD020EE01F04750D9264850DA22080EC8
:1012F800DF6E20EE02F04750D9264850DA22280E39
:10130800DE6E040EDD6E47C0D9FF48C0DAFF480E16
:10131800DF6E47C0D9FF48C0DAFF000EDB8E12002F
:10132800000176510401265D000177510401275917
:10133800D8B004D026C476F027C477F0E5EC06F0E0
:10134800000120EE02F07851D9267951DA22280ED0
:10135800DE6E040EDD6E78C0D9FF79C0DAFF480E64
:10136800DF6E78C0D9FF79C0DAFF000EDB8E12007D
:10137800066E000E076E040E086E0150026E036AB8
:10138800D890023603360650046E056AD8900436A3
:101398000536D89004360536025004260350052237
:1013A800D89004360536D8900436053604500726FA
:1013B8000550082207C0D9FF08C0DAFFDF9E015098
:1013C800D8A407D00650020D7C0EF324D96E000E67
:1013D80006D00650020D780EF324D96E000EF420C4
:1013E800DA6E07C0DEFF08C0DDFF07C0D9FF08C0FE
:1013F800DAFFDF9C20EE04F00750D9260850DA22E5
:10140800DF8C12002D0E546E5BC01DF0FD0E1D16F4
:10141800D8A438D05BC01DF0D8901D323F0E1D16E1
:101428001D50040D000EF324456E040EF420466E84
:1014380045C047F046C048F0040E471A45C0D9FFDA
:1014480046C0DAFFDF30E8320F0B0D0AD8A417D0F8
:10145800200E016E040E026E20EE02F04550D926D1
:101468004650DA22DECF03F0DDCF04F0000E066E20
:10147800080E056EB8EC0CF04EEC0AF012001FECEA
:101488000CF012005B50FD0B040AD8A41200B1EC5A
:1014980007F01200000E586E000E506E000E4E6ED1
:1014A800000E4F6E000E4B6E000E566E78C0D9FFC0
:1014B80079C0DAFF7F0EDF16040E0001781B78C0B2
:1014C800D9FF79C0DAFF7F0EDF16040E0001781B02
:1014D80047C0D9FF48C0DAFF7F0EDF16000E0001B3
:1014E800756F000E0001776F000E766F000E000119
:1014F8006D6F000E00016F6F000E6E6FFBEC05F054
:10150800000E106E030E0F6E000E116E000E126E9E
:10151800000E146E000E136E95EC0AF081EC05F0C7
:10152800120017D0D6EC0AF040EC03F01200D6EC0B
:101538000AF0010E6AEC0EF01200D6EC0AF0020E68
:101548006AEC0EF01200FFEC0DF01200FDEC04F056
:1015580012000FC015F010C016F01650000AD8B4CB
:1015680004D07F0AD8A412001AD01550010AD8B4A2
:10157800EAD7030AD8B41200010AD8B4E7D7060A92
:10158800D8B41200770AD8B41200010AD8B4CAD75E
:10159800070AD8B4D2D7010AD8A41200C8D7155060
:1015A800FF0A12006DA236D0010E9CEC0DF012005D
:1015B80037043810D8A404D0010E81EC0DF02FD0D8
:1015C8004B0E37183810D8A404D0010E9CEC0DF03F
:1015D80026D0385004E1970E375CD8A020D0000EF2
:1015E800386E000E376E1BD037043810D8A404D0DC
:1015F800010E81EC0DF013D0320E37183810D8A434
:1016080004D0010E9CEC0DF00AD0B70E375C030E27
:101618003858E3D75150200AD8B4CAD7E5D7374A43
:10162800382A1200C580C5B0FED7E4EC0EF0D00E03
:10163800C1EC0BF0E4EC0EF06B0EC1EC0BF0E4EC3B
:101648000EF0020EC1EC0BF0E4EC0EF0000EC1EC53
:101658000BF0E4EC0EF0C584C5B4FED7C580C5B068
:10166800FED7E4EC0EF0D00EC1EC0BF0E4EC0EF07B
:101678001B0EC1EC0BF0E4EC0EF0000EC1EC0BF00D
:10168800E4EC0EF0000EC1EC0BF0E4EC0EF0C584B7
:10169800C5A41200FDD7000E956E8C9C8C9E8C8A7A
:1016A80000F0FA0E306E580EE82EFED7302EFCD71A
:1016B80000D0030E16EC0EF04E0E306EEB0EE82E38
:1016C800FED7302EFCD700F0030E16EC0EF0100EED
:1016D800306E940EE82EFED7302EFCD700D0030EC5
:1016E80016EC0EF04E0E306EEB0EE82EFED7302EB6
:1016F800FCD700F0020E16EC0EF02C0ED9EC0EF012
:101708000F0ED9EC0EF012000600E9CF21F0EACF57
:1017180022F0E1CF23F0E2CF24F0D9CF25F0DACFC1
:1017280026F0F3CF27F0F4CF28F0F6CF29F0F7CF43
:101738002AF0F8CF2BF0F5CF2CF0DAEC03F02CC020
:10174800F5FF2BC0F8FF2AC0F7FF29C0F6FF28C015
:10175800F4FF27C0F3FF26C0DAFF25C0D9FF24C055
:10176800E2FF23C0E1FF22C0EAFF21C0E9FF20C059
:10177800FBFF1FC0FAFF5E9211002E6E2EC0C9FF3C
:10178800C6AE02D0FF0E1200C6500F0B080AD8B41E
:101798000FD0C6500F0B0B0AD8B40AD0C6889EA625
:1017A800FED7C7A4C7B002D0FE0E1200000E12006A
:1017B800C6500F0B080AD8B405D0C6500F0B0B0A39
:1017C800D8A41200C7B0FED7E4EC0EF0C5AC02D026
:1017D800FE0E1200000E1200026E02C0C9FFC6AE55
:1017E80002D0FF0E1200C6500F0B080AD8B40FD053
:1017F800C6500F0B0B0AD8B40AD0C6889EA6FED7CF
:10180800C7A4C7B002D0FE0E1200000E1200C650C8
:101818000F0B080AD8B405D0C6500F0B0B0AD8A472
:101828001200C7B0FED7EDEC0EF0C5AC02D0FE0E2C
:101838001200000E1200020E5618D8A403D071EC44
:1018480004F01200000E566E4B50D8A41FD020EEA4
:1018580001F04750D9264850DA22080EDF6E20EEF4
:1018680002F04750D9264850DA22200EDE6E040EC8
:10187800DD6E47C0D9FF48C0DAFF0C0EDF6E47C0E7
:10188800D9FF48C0DAFF000EDB8E1200000E4B6E47
:101898001200000E58EC0EF04FEC0BF0010ED9ECD4
:1018A8000EF0020ED9EC0EF0000E2D6E080E9EEC16
:1018B8000EF01D0EC86E16EC0BF04FEC01F0D0ECDC
:1018C8000DF0000E0001BE6F000EBD6F9384200E58
:1018D800516001D0FCD76DB2FAD7D8EC0CF0F7D72D
:1018E80000EE60F03D0EEE6AE806FDE100EE33F032
:1018F8002B0EEE6AE806FDE1780EF66E1D0EF76E09
:10190800000EF86E00EE9DF010EE1DF00900F5CF08
:10191800EEFFE550E150FAE15E905E92000EF86E3F
:1019280000014DEF0CF070A01DD045C0D9FF46C096
:10193800DAFF800EDE18D8A414D078C0D9FF79C099
:10194800DAFF840EDE18D8A40CD045C0D9FF46C0F3
:10195800DAFF0C0EDF6E45C0D9FF46C0DAFF000E75
:10196800DB8E7090689A120003C009F004C00AF078
:1019780001C007F002C008F00ED009C0D9FF0AC0A4
:10198800DAFF07C0E1FF08C0E2FFDFCFE7FF094A3F
:101998000A2A074A082A0506D8A006060528EDE1FE
:1019A8000628D8B41200E9D7010E14EC0DF02E6EFB
:1019B8002E5000016119D8B412002EC061F02E50CB
:1019C800D8A4120000016551D8A402D0010E01D09C
:1019D800000E0001656F000E0001696F000E000126
:1019E800606F12000C6E09A405D0000E016E0C5039
:1019F800BCEC09F009A205D0010E016E0C50BCEC3C
:101A080009F00C50010D700EF3240A6E0F0EF4202D
:101A18000B6E0AC0D9FF0BC0DAFF09C0DFFF120046
:101A28002D6E0ED081B802D0010E1200000E1200E9
:101A380081BA02D0010E1200000E1200000E120030
:101A48002D50000AD8B4FAD7010AD8B4EBD7030A44
:101A5800D8B4EED7000E12002D6E08D09590120063
:101A68009592120095941200959612002D50000A36
:101A7800D8B41200010AD8B4F1D7030AD8B4F0D701
:101A8800010AD8B4EFD7070AD8A41200EDD7016E1F
:101A980008D0959012009592120095941200959690
:101AA80012000150000AD8B41200010AD8B4F1D7C4
:101AB800030AD8B4F0D7010AD8B4EFD7070AD8A4D4
:101AC8001200EDD7046E0450D8A412000450040D7F
:101AD800600E026E000E036E060E0226000E032232
:101AE800F3500226F4500322020E0224D96E000E8F
:101AF8000320DA6E01C0DFFF1200016E08D08C806F
:101B080012008C8212008C8412008C861200015004
:101B1800000AD8B41200010AD8B4F1D7030AD8B41D
:101B2800F0D7010AD8B4EFD7070AD8A41200EDD726
:101B3800016E08D08C9012008C9212008C941200C6
:101B48008C9612000150000AD8B41200010AD8B4C9
:101B5800F1D7030AD8B4F0D7010AD8B4EFD7070AE7
:101B6800D8A41200EDD7000E4D6E000E106E740E44
:101B78000F6E000E116E000E126E000E146E000E27
:101B8800136E95EC0AF06D92699401D0689468B46C
:101B9800FDD7000E556E12005150D8A41200000E49
:101BA8006D6E000E696E160E6F6E9F0E6B6E7B0E5D
:101BB800696ED08EA28AA08AF28E01D06D866DA63B
:101BC800FDD7010E516E12002DC0BAF02EC0BBF029
:101BD80009D0BAC0D9FFBBC0DAFF2FC0DFFF0001B0
:101BE800BA4BBB2B3106D8A032063128F2E1322895
:101BF800D8B41200EED7010E0001656F000E000187
:101C0800666F000E0001676F000E0001606F000E26
:101C18000001646F000E636F1A0E096E010EF6EC78
:101C28000CF012002E6E8C50F00B2E248C6E8C9AB9
:101C3800110E2D6EAC0EE82EFED72D2EFCD78C8AF9
:101C4800200E2D6E2A0EE82EFED72D2EFCD7120060
:101C5800698468986D82010E4D6E000E556E000EF7
:101C6800106E750E0F6E000E116E000E126E000EC5
:101C7800146E000E136E95EC0AF0120001C007F006
:101C880002C008F008D007C0D9FF08C0DAFF03C0B7
:101C9800DFFF074A082A0506D8A006060528F3E14B
:101CA8000628D8B41200EFD72E6E07D0010E30ECFC
:101CB8000DF0010E7CEC0EF012002E50000AD8B484
:101CC800F5D7010AD8B41200030A1200026E07D031
:101CD800010E4BEC0DF0010E8DEC0EF012000250CF
:101CE800000AD8B4F5D7010AD8B41200030A1200C2
:101CF8002D6E04D093881200938A12002D50000A8A
:101D0800D8B41200010AD8B4F5D7030AD8A412002F
:101D1800F3D7016E04D093881200938A1200015001
:101D2800000AD8B41200010AD8B4F5D7030AD8A417
:101D38001200F3D72E6E3F0EC716000EC66E000EA9
:101D4800C56E2E50C6122D50C71293829380C68A34
:101D58001200010E3326000E3422352236224D5051
:101D6800D8A41200552A5550D8A41200556812005C
:101D780041583D0041593D00415A3D0047583D00FA
:101D880047593D00475A3D000180387CFC00C65049
:101D98000F0B080AD8B404D0C6500F0B0B0AD8B4DE
:101DA800C586C7A0FED7C95012002F6E8C9E2F384B
:101DB8000F0B16EC0EF02F500F0B16EC0EF0120056
:101DC800C5CF2DF01F0E2D16D8A4FAD7C7A4120020
:101DD800F7D7C5CF01F01F0E0116D8A4FAD7C7A4AC
:041DE8001200F7D717
:107EE80000FA7FF97E5F7FFF00010000FF00018D2F
:107EF8007F34034D006900630072006F00630068FF
:107F08000069007000200054006500630068006E7E
:107F1800006F006C006F0067007900200049006E58
:107F28000063002E0005010902A1010901A1000555
:107F38000919012903150025019503750181029589
:107F480001750581010501093009311581257F7504
:107F58000895028106C0C02E034D006F007500739E
:107F6800006500200049006E0020006100200053D9
:107F78000071007500610072006500200044006512
:107F8800006D006F0009022200010100C0320904DF
:107F98000000010301020009211101000122320041
:107FA8000705810303000100803F72313FFE753EE3
:107FB80058633D951D3CC5AE3A7921399480379375
:107FC800A73556153400000000803FF0FFBEE2A937
:107FD8003E8376BEAE2B3E3CC3BDD2133D78D3BBA9
:107FE8001201000200000008D8040000030001028A
:087FF80000010403090400006C
:020000040020DA
:08000000FFFFFFFFFFFFFFFF00
:020000040030CA
:0E000000240E3F1EFF0181FF0FC00FE00F40D6
:00000001FF
