:040000000BEF00F012
:100008005F82FACF1DF0FBCF1EF0D7ED15F010EF91
:1000180016F004012205D8A410D0040120511F0BAA
:100028000009D8A40AD03F8E030E04012119D8A4D0
:1000380002D0010E01D0000E516E04012251D8A445
:100048001200040120511F0B020AD8A41200040157
:1000580024510F0B0009D8B41200040124510F0BCE
:10006800156E020E15601200200E5518D8A4120045
:100078003F8E040124BF1BD0040124510F0B156EC1
:100088001550020DD30EF324D96E000EF420DA6E4B
:10009800DECF19F0DDCF1AF0040124510F0B156ED5
:1000A8001550010D4A0EF324D96E000E1AD0040122
:1000B80024510F0B156E1550020D420EF324D96E04
:1000C800000EF420DA6EDECF19F0DDCF1AF004014D
:1000D80024510F0B156E1550010D480EF324D96EDF
:1000E800000EF420DA6EDF50186E18B002D01994A2
:1000F80001D01984040124BF0BD0040124510F0B33
:10010800156E1550020DD30EF324D96E000E0AD0C9
:10011800040124510F0B156E1550020D420EF324E5
:10012800D96E000EF420DA6E19C0DEFF1AC0DDFFAA
:10013800030E04012119D8A42ED019C0D9FF1AC062
:10014800DAFFDFAE1BD0040124BF0BD00401245119
:100158000F0B156E1550010D4A0EF324D96E000EC3
:100168000AD0040124510F0B156E1550010D480ECD
:10017800F324D96E000EF420DA6EDF8219C0D9FF9D
:100188001AC0DAFF000EDB8419C0D9FF1AC0DAFFE3
:10019800000EDB8E1200040E191A19C0D9FF1AC0FE
:1001A800DAFFDFAE1BD019C0D9FF1AC0DAFF7F0E05
:1001B800DF1619C0D9FF1AC0DAFF000EDB8C000E5B
:1001C8000E6E050E0D6E19C00FF01AC010F0000E5D
:1001D800126E020E116EA9EC14F006D019C0D9FFE8
:1001E8001AC0DAFF000EDB8C040E191A18B206D0FA
:1001F80019C0D9FF1AC0DAFFDFAE30D0040124BF1E
:100208000BD0040124510F0B156E1550010D4A0E29
:10021800F324D96E000E0AD0040124510F0B156E79
:100228001550010D480EF324D96E000EF420DA6E35
:10023800DF9219C0D9FF1AC0DAFF3B0EDF16000E95
:100248000E6E050E0D6E19C00FF01AC010F0000EDC
:10025800126E020E116EA9EC14F006D019C0D9FF67
:100268001AC0DAFF3B0EDF16040124510F0B156E7E
:100278001550010D700EF324166E0F0EF420176E34
:1002880016C0D9FF17C0DAFFFE0EDF16120077C0BE
:100298007BF000017C6B7D6B0001763500017B37BC
:1002A80001E37C8100017B510001806F7AC07BF003
:1002B80000017C6B7D6B0001793500017B3701E320
:1002C8007C8100017B5100017F6F0001805100019A
:1002D800D8B411D000017F510001805DD8B012D090
:1002E80000018051000800017F2500017B6F180E76
:1002F80000017B6507D078C075F079C076F07AC0C8
:1003080077F0120000017F510001D8B411D000012C
:10031800805100017F5DD8B012D000017F510008E4
:100328000001802500017B6F180E00017B6507D056
:1003380075C075F076C076F077C077F01200060EBB
:1003480000017E6F000177AF02D000017E8F0001AF
:100358007AAF02D000017E8D0001768FFF0E00017A
:100368007517FF0E00017617000E000177170001C0
:10037800798FFF0E00017817FF0E00017917000E24
:1003880000017A1700017F510001805DD8B025D0A7
:100398000001D890783779377A3700017F07000154
:1003A800805100017F19D8B411D000017E077EC0AA
:1003B8007BF0070E00017B17D8B408D0E9D70001FD
:1003C800D8907733763375330001802B00017F5145
:1003D80000018019D8B42BD0F2D700018051000158
:1003E8007F5DD8B024D00001D8907537763777373D
:1003F800000180070001805100017F19D8B411D095
:1004080000017E077EC07BF0070E00017B17D8B481
:1004180008D0E9D70001D8907A33793378330001CE
:100428007F2B00017F5100018019D8A4F3D7000168
:100438007EAF12D0FF0E0001751BFF0E0001761B68
:10044800FF0E0001771B010E00017527000E000149
:100458007623000E0001772300017EAD12D0FF0E37
:100468000001781BFF0E0001791BFF0E00017A1BAB
:10047800010E00017827000E00017923000E00010B
:100488007A23000E00017E6F000175510001782764
:1004980000017651000179230001775100017A2388
:1004A80000017AAF15D0FF0E0001781BFF0E000186
:1004B800791BFF0E00017A1B010E00017827000E40
:1004C80000017923000E00017A23010E00017E6FDE
:1004D80078C02BF079C02CF07AC02DF080C02EF0B7
:1004E8007EC02FF0FBEC11F02BC075F02CC076F01D
:1004F8002DC077F012000001945100019511000100
:100508009611D8A40AD0000E0001946F800E000145
:10051800956F3F0E0001966F1200720E2B6E310E12
:100528002C6E440E2D6E94C02EF095C02FF096C000
:1005380030F0D7EC13F0D8B00FD0000E0001EA6FFE
:10054800220EE96FFF0E0001946F7F0E0001956F78
:100558007F0E0001966F120094C02BF095C02CF00E
:1005680096C02DF0490E2E6E3A0E2F6EC40E306EC8
:10057800D7EC13F0D8B00FD0000E0001EA6F220EAE
:10058800E96F000E0001946F000E0001956F000ED8
:100598000001966F1200000196AF02D0010E01D043
:1005A800000E00019C6F00019C510001D8B40ED0D0
:1005B80094C072F095C073F096C074F060EC18F0B7
:1005C80072C094F073C095F074C096F094C063F054
:1005D80095C064F096C065F0AA0E0001666FB80E6B
:1005E8000001676F3F0E0001686F37EC06F063C0CB
:1005F80094F064C095F065C096F094C08BF095C0F7
:100608008CF096C08DF050EC0CF08BC097F08CC03D
:1006180098F08DC099F097C072F098C073F099C0A7
:1006280074F0D4EC08F072C09AF073C09BF094C0D8
:1006380081F095C082F096C083F09AC060F09BC0AC
:1006480061F035EC17F060C084F061C085F062C0DD
:1006580086F0CEEC16F081C094F082C095F083C08D
:1006680096F094C081F095C082F096C083F0AF0EEA
:100678000001846F7F0E0001856F000E0001876FF7
:10068800090E866FB8EC0DF081C08DF082C08EF037
:1006980083C08FF09AC090F09BC091F03EEC0BF0B5
:1006A8008DC094F08EC095F08FC096F000019C51DB
:1006B8000001D8B42ED00001942913E17F0E000167
:1006C80095190FE17F0E00019619D8A40AD0000EE3
:1006D8000001946F000E0001956F000E0001966FE7
:1006E8001200000E0001636F800E0001646F3F0E60
:1006F8000001656F94C066F095C067F096C068F019
:100708008CEC07F063C094F064C095F065C096F077
:10071800120094C094F095C095F096C096F012001F
:10072800000E21EC19F09EEC15F0010E90EC19F07A
:10073800020E90EC19F0000E2B6E080E67EC19F003
:100748001D0EC86E65EC15F032EC08F048EC18F098
:10075800000E0001C16F000EC06F9384200E55601B
:1007680001D0FCD76DB2FAD7010E90EC19F0A1ECCC
:1007780011F02DC0DDF02EC0DEF000F0DDC060F01D
:10078800DEC061F035EC17F060C063F061C064F062
:1007980062C065F0F9C066F0FAC067F0FBC068F0A7
:1007A80037EC06F063C0D7F064C0D8F065C0D9F064
:1007B8000C0E2F6E010E306E14EC18F0DDC060F0D8
:1007C800DEC061F035EC17F060C0C2F061C0C3F064
:1007D80062C0C4F0C2C0AEF0C3C0AFF0C4C0B0F0D5
:1007E80081EC04F0200EFBEC18F047EC11F02DC062
:1007F800DFF02EC0E0F000F0DFC060F0E0C061F094
:1008080035EC17F060C063F061C064F062C065F059
:10081800F9C066F0FAC067F0FBC068F037EC06F084
:1008280063C0DAF064C0DBF065C0DCF0100E2F6E38
:10083800010E306E14EC18F0DFC060F0E0C061F01B
:1008480035EC17F060C0C2F061C0C3F062C0C4F0FC
:10085800C2C0AEF0C3C0AFF0C4C0B0F081EC04F0C9
:10086800C00E90EC19F0EDEC10F02DC0E1F02EC0A8
:10087800E2F000F0E1C060F0E2C061F035EC17F0A2
:1008880060C063F061C064F062C065F0F9C066F0F2
:10089800FAC067F0FBC068F037EC06F063C018F1E7
:1008A80064C019F165C01AF1140E2F6E010E306E76
:1008B80014EC18F0E1C060F0E2C061F035EC17F01C
:1008C80060C0C2F061C0C3F062C0C4F0C2C0AEF084
:1008D800C3C0AFF0C4C0B0F081EC04F0DDC02CF0B0
:1008E800DEC02DF0DFC02EF0E0C02FF0E1C030F008
:1008F800E2C031F0A4EC16F031D7000E0001B86F59
:10090800010EB76F0001B0AF1AD02D0EFBEC18F036
:10091800AEC063F0AFC064F0B0C065F0000E000177
:10092800666F800E0001676FBF0E0001686F37ECBD
:1009380006F063C0AEF064C0AFF065C0B0F0000E62
:100948000001BF6F0A0EBE6F0001BFBF1200BEC01C
:1009580060F0BFC061F035EC17F060C0B9F061C05D
:10096800BAF062C0BBF0B9C0A0F0BAC0A1F0BBC079
:10097800A2F0000E00019D6F200E00019E6F410E37
:1009880000019F6F61EC05F09DC0B1F09EC0B2F010
:100998009FC0B3F0B1C066F0B2C067F0B3C068F0F2
:1009A800AEC063F0AFC064F0B0C065F08CEC07F087
:1009B80063C072F064C073F065C074F0D4EC08F0E2
:1009C80072C0BCF073C0BDF00001BC510001BD1184
:1009D800D8B405D0000E0001B86F000EB76F000143
:1009E800BE510001BF11D8A405D0000E0001B86F98
:1009F800000EB76FBEC060F0BFC061F035EC17F0F5
:100A080060C0B9F061C0BAF062C0BBF0B9C0A0F074
:100A1800BAC0A1F0BBC0A2F0000E00019D6F200E6D
:100A280000019E6F410E00019F6F61EC05F09DC0B3
:100A3800B4F09EC0B5F09FC0B6F0B4C066F0B5C0C3
:100A480067F0B6C068F0BCC060F0BDC061F035ECBE
:100A580017F060C063F061C064F062C065F037EC05
:100A680006F063C072F064C073F065C074F060ECA7
:100A780018F072C075F073C076F074C077F0AEC02D
:100A880078F0AFC079F0B0C07AF04BEC01F075C0E7
:100A9800AEF076C0AFF077C0B0F00001B7510001FA
:100AA800B811D8A405D00001BC51300FFBEC18F0E8
:100AB8000001BE07D8A0BF0747D7000E0001A96FE5
:100AC80000019D5100019E1100019F11D8A41FD063
:100AD800000E2B6E000E2C6E000E2D6EA0C02EF098
:100AE800A1C02FF0A2C030F0D7EC13F0D8A005D0E9
:100AF800000E0001EA6F210EE96F000E00019D6FE4
:100B0800000E00019E6F000E00019F6F1200000191
:100B1800A0510001A1110001A211D8A40AD0000E11
:100B280000019D6F800E00019E6F3F0E00019F6FB8
:100B3800120000019FAF4CD0A0C072F0A1C073F0AA
:100B4800A2C074F0D4EC08F072C0AAF073C0ABF085
:100B580074C0ACF075C0ADF0AAC060F0ABC061F075
:100B6800ACC062F0ADC063F02AEC15F00001A051F2
:100B7800000160190BE10001A1510001611906E1B2
:100B88000001A25100016219D8B40FD0000E000173
:100B9800EA6F210EE96F000E00019D6F000E000143
:100BA8009E6F000E00019F6F12000001AA51010BF9
:100BB8000001A96F9DC072F09EC073F09FC074F0D1
:100BC80060EC18F072C09DF073C09EF074C09FF086
:100BD8009DC08DF09EC08EF09FC08FF0E6EC06F0B1
:100BE8008DC0A3F08EC0A4F08FC0A5F0A3C063F0A1
:100BF800A4C064F0A5C065F0A0C066F0A1C067F00D
:100C0800A2C068F037EC06F063C0A6F064C0A7F095
:100C180065C0A8F0A6C094F0A7C095F0A8C096F04B
:100C28007FEC02F094C09DF095C09EF096C09FF0B6
:100C38000001A9510001D8B40FD09DC072F09EC028
:100C480073F09FC074F060EC18F072C09DF073C030
:100C58009EF074C09FF012009DC09DF09EC09EF053
:100C68009FC09FF0120065C069F000016A6B6B6B52
:100C7800000164350001693701E36A8100016951A7
:100C880000016C6F00016C51D8A40AD0000E00015D
:100C9800636F000E0001646F000E0001656F1200A3
:100CA80068C069F000016A6B6B6B00016735000171
:100CB800693701E36A81000169510001716F000120
:100CC8007151D8A40AD0000E0001636F000E000114
:100CD800646F000E0001656F1200000171517B0FF7
:100CE80000016C2765C071F0000168510001711B9B
:100CF800800E000171170001648F0001678FFF0EDD
:100D080000016617FF0E00016717000E0001681743
:100D1800000E00016D6F000E00016E6F000E0001E5
:100D28006F6F070E0001706F000163A10CD0000106
:100D3800665100016D270001675100016E23000113
:100D4800685100016F230001D89065336433633321
:100D58000001D8906637673768370001702FE4D7ED
:100D6800090E0001706F000163A10CD000016651EB
:100D780000016D270001675100016E2300016851D1
:100D880000016F230001D890653364336333000199
:100D9800D8906F336E336D330001702FE4D76DC078
:100DA8002BF06EC02CF06FC02DF06CC02EF071C00F
:100DB8002FF0FBEC11F02BC063F02CC064F02DC0B9
:100DC80065F0120000018FAF0FD0000E0001EA6F2E
:100DD800210EE96F000E00018D6F000E00018E6F6D
:100DE800000E00018F6F120000018D5100018E115D
:100DF80000018F11D8A40FD0000E0001EA6F220E57
:100E0800E96F000E00018D6F000E00018E6F000E5D
:100E180000018F6F1200000E0001666F000E0001C6
:100E2800676F400E0001686F900E2E6E000E2F6ED9
:100E38008DC02BF08EC02CF08FC02DF08FEC13F0EE
:100E48002BC063F02CC064F02DC065F037EC06F0C1
:100E580063C075F064C076F065C077F0000E0001DD
:100E6800786F800E0001796FBF0E00017A6F4BEC2E
:100E780001F075C08DF076C08EF077C08FF000015C
:100E88009007D8A091078DC081F08EC082F08FC0E6
:100E980083F0CD0E0001846F7F0E0001856F000E78
:100EA8000001876F080E866FB8EC0DF081C08DF0D9
:100EB80082C08EF083C08FF0720E0001666F310E13
:100EC8000001676F3F0E0001686F90C060F091C02D
:100ED80061F035EC17F060C063F061C064F062C087
:100EE80065F037EC06F063C075F064C076F065C055
:100EF80077F08DC078F08EC079F08FC07AF04BEC27
:100F080001F075C08DF076C08EF077C08FF01200BA
:100F180065C069F000016A6B6B6B00016435000104
:100F2800693701E36A81000169510001706F0001AE
:100F38007051D8A40AD0000E0001636F000E0001A2
:100F4800646F000E0001656F120068C069F000014F
:100F58006A6B6B6B000167350001693701E36A81D1
:100F6800000169510001716F00017151D8A40AD0C4
:100F7800000E0001636F000E0001646F000E000197
:100F8800656F1200000E00016D6F000E00016E6F9C
:100F9800000E00016F6F00017151890F0001705F31
:100FA80065C071F0000168510001711B800E0001DD
:100FB80071170001648FFF0E00016317FF0E000117
:100FC8006417000E000165170001678FFF0E00010E
:100FD8006617FF0E00016717000E00016817180E4C
:100FE80000016C6F0001D8906D376E376F370001C4
:100FF80066510001635D00016751000164590001F9
:10100800685100016559D8A00ED000016651000151
:10101800635F000167510001645B000168510001D2
:10102800655B00016D810001D890633764376537CF
:1010380000016C2FD7D76DC02BF06EC02CF06FC09D
:101048002DF070C02EF071C02FF0FBEC11F02BC00A
:1010580063F02CC064F02DC065F01200A09A000E59
:101068006A6E000E686E000E706E710E2B6E0F0E9B
:101078002C6E000E2E6E000E2D6E000E306E010EC0
:101088002F6EA6EC18F0160E6F6E9F0E6B6E7B0E11
:10109800696E000E336E070E336401D00ED03350E4
:1010A800040D000EF324D96E040EF420DA6EDE6A05
:1010B800DE6ADE6ADD6A332AEED76D8C000E6E6E4C
:1010C8006D986D9C6896000E3F6E000E376E000E90
:1010D800396E000E386E68B6F5D7010E566E010EE1
:1010E800576E000E536E000E0001F56F000E526E23
:1010F800000E336E010E336401D02ED03350020D32
:10110800420EF324D96E000EF420DA6E000EDE6E65
:10111800000EDD6E3350020DD30EF324D96E000E8F
:10112800F420DA6E000EDE6E000EDD6E3350010D17
:10113800480EF324D96E000EF420DA6E000EDF6E2E
:101148003350010D4A0EF324D96E000EF420DA6EE6
:10115800000EDF6E332ACED7080E426E040E436EA1
:10116800160E706E040E0401036F200E026F080E37
:101178000401016F040E0401006F0401008F000ECA
:101188005C6E000E0001CF6F000ED06F000ED16FA5
:10119800000ED26F000E0001F66F000E556E1200A1
:1011A80074C076F00001776B786B0001733500012D
:1011B800763701E37781000176510001806F0001E5
:1011C8008051D8A40AD0000E0001726F000E736F10
:1011D800000E746F000E756F1200170E0001766F07
:1011E80072C077F073C078F074C079F00001762986
:1011F80000017A6F05D00001D890793378337733BE
:1012080000017A2FF8D70001775100017B6F0001A8
:10121800738FFF0E00017217FF0E00017317000E87
:10122800000174170001725100017C6F00017351B5
:1012380000017D6F0001745100017E6F00017F6B1A
:101248008E0E0001805F000180AF1AD0000180512E
:10125800800A8F0FD8B00AD0000E0001726F000EFE
:10126800736F000E746F000E756F12000001D89036
:101278007F337E337D337C330001803FF7D71BD02B
:10128800170E0001806512D0000E0001726F000E6B
:10129800736F000E746F000E756F12000001D89006
:1012A8007C377D377E377F3700018007000180510A
:1012B8000001D8A4F3D700017B510001D8B409D0AC
:1012C80000017F1F7E1F7D1F7C6D000E7D237E2306
:1012D8007F237CC072F07DC073F07EC074F07FC045
:1012E80075F01200A09A000E6A6E000E686E000E6D
:1012F800706E710E016E0F0E026E000E046E000EFF
:10130800036E000E066E010E056ED2EC18F0160E76
:101318006F6E9F0E6B6E7B0E696E000E096E070E68
:10132800096401D00ED00950040D000EF324D96EC3
:10133800040EF420DA6EDE6ADE6ADE6ADD6A092AE5
:10134800EED76D8C000E6E6E6D986D9C6896000ED3
:101358003F6E000E376E000E396E000E386E68B69E
:10136800F5D7010E566E010E576E000E536E000E25
:101378000001F56F000E526E000E096E010E096431
:1013880001D02ED00950020D420EF324D96E000E62
:10139800F420DA6E000EDE6E000EDD6E0950020DCE
:1013A800D30EF324D96E000EF420DA6E000EDE6E32
:1013B800000EDD6E0950010D480EF324D96E000EA3
:1013C800F420DA6E000EDF6E0950010D4A0EF32488
:1013D800D96E000EF420DA6E000EDF6E092ACED721
:1013E800080E426E040E436E160E706E040E040153
:1013F800036F200E026F080E0401016F040E040132
:10140800006F0401008F000E5C6E000E0001CF6FAC
:10141800000ED06F000ED16F000ED26F000E0001CB
:10142800F66F000E556E12005504D8B46DBA06D08A
:10143800000E686E69806988020E556E68B469A4EA
:1014480003D068942EEC18F06DA202D0A19A120075
:1014580068B069A006D076EC09F0A08A040E556E33
:10146800689068B869A802D078EC18F068AC1AD00F
:1014780069AC0ED0000E0E6E730E0D6E000E0F6E60
:10148800000E106E000E126E010E116EA9EC14F013
:10149800689C0EEC19F05850D8A458065850D8B487
:1014A800D4EC0FF068BA69AA02D0F4EC16F068B26E
:1014B80069A20FD07F0E0E6E0D68000E0F6E000E23
:1014C800106E000E126E010E116EA9EC14F0000ED3
:1014D8006A6E040E556002D0A19A120069A638D02F
:1014E800000E1C6E030E1C6401D032D068A630D0EA
:1014F8006CCF5EF05E30E832E8320F0B5A6E6896B9
:101508005EB407D05A50010D4A0EF324D96E000E6E
:1015180006D05A50010D480EF324D96E000EF4205F
:10152800DA6EDF705A50D8A403D01FEC14F00ED036
:10153800000E0E6E720E0D6E5E0E0F6E000E106EA9
:10154800000E126E000E116EA9EC14F01C2ACAD7F8
:10155800A19A1200800E04012019D8A41200C00E0E
:101568003F6E7CD0E80E3C6E7F0E3D6E000E416EE5
:10157800120E406E120004012251D8A43ED004017C
:101588002251020DF70EF324F66E7E0EF420F76E4C
:101598000900F5CF3CF00A00F5CF3DF0020E3C24DF
:1015A800016E000E3D20026E01C0F6FF02C0F7FF7B
:1015B800F86A070EF76403D00800F55005D0F6CF97
:1015C800E9FFF7CFEAFFEF50406E030E3C24016EAF
:1015D800000E3D20026E01C0F6FF02C0F7FFF86A58
:1015E800070EF76403D00800F55005D0F6CFE9FFE1
:1015F800F7CFEAFFEF50416E1200000E3F6E120067
:10160800030E0401226124D004012251020DE90EC7
:10161800F324F66E7E0EF420F76E0900F5CF3CF049
:101628000A00F5CF3DF03CC0F6FF3DC0F7FFF86A71
:10163800070EF76403D00800F55005D0F6CFE9FF90
:10164800F7CFEAFFEF50016E0150406E416A120079
:10165800000E3F6E1200000E3F6E1200040123516F
:10166800010AD8B47FD7030AD8B485D7010AD8B4F9
:10167800C7D7F1D700018D5100018E1100018F11DC
:10168800D8A40AD0000E00018D6F000E00018E6FE5
:10169800000E00018F6F120000018F517F0B0001B7
:1016A800926F936BD8900001923793370001925153
:1016B80000019027000193510001912300018EAF92
:1016C80004D00001926B922B02D00001926B0001B2
:1016D800925100019027000E9123000191AF0FD085
:1016E800000E0001EA6F220EE96F000E00018D6FF7
:1016F800000E00018E6F000E00018F6F12000001B6
:1017080091BF1CD000019105D8A018D0000E00018F
:10171800EA6F220EE96F00018FAF08D0FF0E0001BB
:101728008D6F7F0E00018E6FFF0EE6D7FF0E000152
:101738008D6F7F0E00018E6F7F0EDED70001913511
:1017480091310001936F000190310001926F000107
:101758008F5100019219800B921900018F6F90C070
:1017680092F0010E000192170001923392330001AA
:101778008E51000192197F0B921900018E6F8DC056
:101788008DF08EC08EF08FC08FF0120020EE01F029
:101798004C50D9264D50DA22DF50026E0250385C88
:1017A800000E3958D8A038C002F00250385E000E3A
:1017B800395A000E016E11D00150010D280EF32484
:1017C800D96E040EF420DA6E34C0E1FF35C0E2FFB2
:1017D800DFCFE7FF344A352A012A0250015CD8A03E
:1017E800EBD738503910D8B432D020EE01F04E5033
:1017F800D9264F50DA22080EDF6E20EE02F04E5046
:10180800D9264F50DA22280EDE6E040EDD6E4CC04B
:10181800D9FF4DC0DAFFDFBC0DD04EC0D9FF4FC095
:10182800DAFF480EDF6E4EC0D9FF4FC0DAFF000E58
:10183800DB8E12004EC0D9FF4FC0DAFF080EDF6EF4
:101848004EC0D9FF4FC0DAFF000EDB8E120020EE2B
:1018580001F04E50D9264F50DA22080EDF6E20EEE6
:1018680002F04E50D9264F50DA22200EDE6E040EBA
:10187800DD6E4EC0D9FF4FC0DAFF040EDF6E4EC0DA
:10188800D9FF4FC0DAFF000EDB8E379E5450D8A424
:101898001200D4EC0FF012008BC02BF08CC02CF08F
:1018A8008DC02DF0910E2E6E000E2F6E8FEC13F062
:1018B800000192AF17D000018DAF0AD0000E0001D1
:1018C8008B6F800E00018C6FBF0E00018D6F1200B0
:1018D800000E00018B6F000E00018C6F000E0001DE
:1018E8008D6F12000001925105E1150E0001915D06
:1018F800D8A007D08BC08BF08CC08CF08DC08DF039
:1019080012008BC072F08CC073F08DC074F0D4ECF0
:1019180008F072C081F073C082F074C083F075C0A3
:1019280084F0A9EC12F081C08EF082C08FF083C0E1
:1019380090F08BC02BF08CC02CF08DC02DF08EC099
:101948002EF08FC02FF090C030F0D7EC13F0D8B045
:1019580018D08EC075F08FC076F090C077F0000E6A
:101968000001786F800E0001796FBF0E00017A6F59
:101978004BEC01F075C08BF076C08CF077C08DF021
:1019880012008EC08BF08FC08CF090C08DF01200CA
:101998006D983FBE39D037AE0CD0020E596E00019B
:1019A800F551D8B4F8EC12F0000E576E000E566ED2
:1019B800120020EE01F04E50D9264F50DA22080EC0
:1019C800DF6E20EE02F04E50D9264F50DA22200E5C
:1019D800DE6E040EDD6E4EC0D9FF4FC0DAFF0C0E6E
:1019E800DF6E4EC0D9FF4FC0DAFF000EDB8E42C05B
:1019F800D9FF43C0DAFF040EDF6E42C0D9FF43C0EF
:101A0800DAFF000EDB8E1200040120AF10D0010EA9
:101A1800596E5350D8B4F8EC12F0000E576E000E01
:101A2800566E5450D8A41200D4EC0FF01200020ED7
:101A3800596E20EE01F04E50D9264F50DA22080E8A
:101A4800DF6E20EE02F04E50D9264F50DA22200EDB
:101A5800DE6E040EDD6E4EC0D9FF4FC0DAFF040EF5
:101A6800DF6E4EC0D9FF4FC0DAFF000EDB8E000ECE
:101A7800576E000E566E5450D8A41200D4EC0FF0D6
:101A88001200040120511F0BE806D8A4120004011B
:101A98002451D8A41200060E04012119D8B418D074
:101AA80020D05C04D8A41DD09F0E3C6E7F0E3D6EE6
:101AB800000E416E090E0AD0C00E3F6E12D02D0ED8
:101AC8003C6E7F0E3D6E000E416E320E406EF4D7B6
:101AD80004012351210AD8B4E4D7030AD8B4EFD7B4
:101AE800010A04012039E832030BE806D8A41200E1
:101AF80026D0F80E3C6E000E3D6E000E416E010EB3
:101B0800406EC10E3F6E1200800E3F6E23C4F8F087
:101B1800F8C001F004012251C3EC17F01200F70ECF
:101B28003C6E000E3D6E000E416E010E406E810E41
:101B38003F6E1200800E3F6E22C4F7F012000401BF
:101B48002151010AD8B41200030AD8B4D2D7010A25
:101B5800D8B4E5D70A0AD8B41200030AD8B4D4D73F
:101B6800010AD8A41200E6D786C02BF087C02CF053
:101B7800000E2E6E030E2D6EE8EC18F084C088F06F
:101B880085C089F02B50000188272C50000189233B
:101B980088C0F6FF89C0F7FF0900F5CF8AF0090071
:101BA800F5CF8BF00A00F5CF8CF041D08AC066F0F3
:101BB8008BC067F08CC068F081C063F082C064F0AD
:101BC80083C065F037EC06F063C075F064C076F04A
:101BD80065C077F0000E2E6E030E2D6E000186078D
:101BE800D8A0870786C02BF087C02CF0E8EC18F047
:101BF80084C088F085C089F02B50000188272C50BC
:101C08000001892388C0F6FF89C0F7FF0900F5CFD6
:101C180078F00900F5CF79F00A00F5CF7AF04BECAF
:101C280001F075C08AF076C08BF077C08CF00001A7
:101C3800865100018711D8A4B9D78AC081F08BC01A
:101C480082F08CC083F012003F8E710E016E0F0E71
:101C5800026E000E046E000E036E000E066E010E7C
:101C6800056ED2EC18F0000E016E040E026E000E26
:101C7800046E000E036E000E066E200E056ED2EC8A
:101C880018F06D8C000E156E010E156401D016D07B
:101C98001550010D480EF324D96E000EF420DA6EAB
:101CA800000EDF6E1550010D4A0EF324D96E000E9A
:101CB800F420DA6E000EDF6E152AE6D75D0E016E8F
:101CC800000E026E000E046E000E036E000E066E0D
:101CD800010E056ED2EC18F06D9C080E426E040ED3
:101CE800436E000E4C6E040E4D6E4CC04EF04DC04F
:101CF8004FF022C45CF05C50D8A403D0100E556E8F
:101D08001200000E0E6E010E0D6E5C0E0F6E000EB0
:101D1800106E000E126E010E116EA9EC14F0200E5A
:101D2800556E120004012039E832030B0009D8A4CB
:101D3800120043D03F8E080E556E1200AEEC0AF02A
:101D4800120028EC0EF012005C0E3C6E000E3D6E88
:101D58003F80010E406E3F8E120052EC12F01200CE
:101D68000DEC00F0120004012451010D5D0EF32466
:101D78003C6E000EF4203D6E3F80010E406E3F8E9B
:101D880012003F8E04012451010D5D0EF324D96E1B
:101D9800000EF420DA6E22C4DFFF1200000E0E6E71
:101DA800020E0D6E000E0F6E000E106E000E126EFB
:101DB800000E116EA9EC14F0120004012151000A62
:101DC800D8B4CBD7010AD8B4CBD7020AD8B4C8D76D
:101DD800060AD8B4AFD7030AD8B4B0D7010AD8B422
:101DE800DDD70F0AD8B4B0D7010AD8B4AAD7030AE6
:101DF800D8B4B9D7010AD8B4C4D7070A1200200E3C
:101E08005518D8A412000001CB510001CC11D8B448
:101E180007D0CBC0D9FFCCC0DAFF0001DFBE12006B
:101E28000001C84BC92B0001C8050001C911D8A47D
:101E38000ED0000E0001C96F000EC86F0001C72B3D
:101E48000001C751D8B403D0000E0001C76F0001CC
:101E5800CA05D8A415D00501009105010093050114
:101E6800009581A406D0000E0501016F05010269E5
:101E780020D0000E0501016F000E0501026F19D078
:101E8800000E0501006F000E0501016F000E05012F
:101E9800026F0001CD51D8B402D00001CE2B000151
:101EA800C505D8A406D00001CE510001CD5DD8B03B
:101EB8001200010E016E000E026E050E036E030E77
:101EC800046E010E35EC10F001C0CBF002C0CCF06E
:101ED8001200080E016E415010E1080E405CD8B0A7
:101EE8000CD040C001F05B50D8A402D0010E04D041
:101EF8005B04D8A402D0020E5B6E0150405E000E57
:101F0800415A20EE01F04250D9264350DA2201C04E
:101F1800DFFF280E0001F16F040E0001F26F3FA0F1
:101F28001CD03AD03CC0F6FF3DC0F7FFF86AF1C0BC
:101F3800D9FFF2C0DAFF070EF76403D00800F550A6
:101F480005D0F6CFE9FFF7CFEAFFEF50DF6E3C4A46
:101F58003D2A0001F14BF22B01060150D8B41200C2
:101F6800E1D73CC0F6FF3DC0F7FFF86AF1C0D9FFE2
:101F7800F2C0DAFF070EF76403D00800F55005D069
:101F8800F6CFE9FFF7CFEAFFEF50DF6E3C4A3D2A74
:101F98000001F14BF22B01060150D8B41200E1D731
:101FA8005650D8A41200010E566E5750D8A41200ED
:101FB800010E576E020E5918D8A415D020EE01F064
:101FC8004250D9264350DA22000EDF6E42C0D9FFB4
:101FD80043C0DAFF480EDF6E42C0D9FF43C0DAFFC4
:101FE800000EDB8E12005904D8A41200000E506EA9
:101FF80020EE01F04C50D9264D50DA22080EDF6E43
:1020080020EE02F04C50D9264D50DA22200EDE6E1A
:10201800040EDD6E4CC0D9FF4DC0DAFF040EDF6E32
:102028004CC0D9FF4DC0DAFF000EDB8E010E506E9A
:1020380020EE01F04E50D9264F50DA22080EDF6EFE
:1020480020EE02F04E50D9264F50DA22200EDE6ED6
:10205800040EDD6E4EC0D9FF4FC0DAFF800EDF6E72
:102068001200056E0150D8B407D00550020D420E7B
:10207800F324D96E000E06D00550020DD30EF324BA
:10208800D96E000EF420DA6EDECF06F0DDCF07F051
:1020980006500710D8A405D0000E016E000E026E7F
:1020A800120020EE02F00650D9260750DA2202C0AC
:1020B800DEFF03C0DDFF20EE01F00650D9260750F1
:1020C800DA2204C0DFFF06C0D9FF07C0DAFF400EDE
:1020D800DF1606C0D9FF07C0DAFF000EDB8606C090
:1020E800D9FF07C0DAFF000EDB8E0150D8B407D045
:1020F8000550020D420EF324D96E000E06D005508D
:10210800020DD30EF324D96E000EF420DA6E040EFD
:10211800DF1A06C001F007C002F0120042C0D9FF62
:1021280043C0DAFF000EDFBC010E026E040E421A35
:10213800080E5518D8A40BD0040122517F0B6E6EDF
:102148006E50D8B402D0100E01D0040E556E59044A
:10215800D8A43AD020EE02F04250D9264350DA22D1
:10216800280EDE6E040EDD6E6DEC0FF0020E5B18AD
:10217800D8A40DD042C0D9FF43C0DAFF040EDF6EE9
:1021880042C0D9FF43C0DAFF000EDB8E12000250B6
:10219800D8A40DD042C0D9FF43C0DAFF480EDF6E85
:1021A80042C0D9FF43C0DAFF000EDB8E120042C0E6
:1021B800D9FF43C0DAFF080EDF6E42C0D9FF43C023
:1021C800DAFF000EDB8E120037BE379E000E596E06
:1021D8001200C580C5B0FED79BEC19F0D00E47ECB5
:1021E80016F00001606F616B60BF61079BEC19F02E
:1021F8003F0E47EC16F00001606F616B60BF61072E
:102208009BEC19F0C582C5B2FED79BEC19F0D10E34
:1022180047EC16F00001606F616B60BF61079BECD3
:1022280019F076EC19F02F6E2F500001646F656B72
:102238009BEC19F0C59AC588C5B8FED79BEC19F078
:1022480076EC19F02F6E2F500001666F676B9BECD0
:1022580019F0C58AC588C5B8FED7C584C5B4FED7E8
:1022680000016451306E2F6A000166512F10000181
:10227800626F0001675130100001636F62C02DF07A
:1022880063C02EF01200C580C5B0FED79BEC19F0D4
:10229800D00E47EC16F00001606F616B60BF6107FC
:1022A8009BEC19F03D0E47EC16F00001606F616B76
:1022B80060BF61079BEC19F0C582C5B2FED79BECE5
:1022C80019F0D10E47EC16F00001606F616B60BF2A
:1022D80061079BEC19F076EC19F02F6E2F50000176
:1022E800646F656B9BEC19F0C59AC588C5B8FED7B5
:1022F8009BEC19F076EC19F02F6E2F500001666FE9
:10230800676B9BEC19F0C58AC588C5B8FED7C5842C
:10231800C5B4FED700016451306E2F6A00016651C2
:102328002F100001626F0001675130100001636FC8
:1023380062C02DF063C02EF01200C580C5B0FED774
:102348009BEC19F0D00E47EC16F00001606F616B42
:1023580060BF61079BEC19F03B0E47EC16F00001DB
:10236800606F616B60BF61079BEC19F0C582C5B2F5
:10237800FED79BEC19F0D10E47EC16F00001606F08
:10238800616B60BF61079BEC19F076EC19F02F6E5A
:102398002F500001646F656B9BEC19F0C59AC588D6
:1023A800C5B8FED79BEC19F076EC19F02F6E2F50BC
:1023B8000001666F676B9BEC19F0C58AC588C5B8C4
:1023C800FED7C584C5B4FED700016451306E2F6AAC
:1023D800000166512F100001626F00016751301033
:1023E8000001636F62C02DF063C02EF012002E5002
:1023F800D8B405D02B502C102D10D8A40CD0000E1A
:102408002B6E000E2C6E000E2D6E12002E2AD89008
:102418002D322C322B32000E2B14306E000E2C1461
:10242800316EFE0E2D14326E305031103210D8B489
:102438000CD0ECD72E2A010E2B26000E2C22000ED3
:102448002D22D8902D322C322B32000E2B14306EC8
:10245800000E2C14316EFF0E2D14326E30503110D8
:102468003210D8B406D0E6D72E06D8902B362C36A4
:102478002D362CBE03D0020E2E60F6D72EA02C9E31
:10248800D8902E322E502D122F50D8A42D8E2BC01E
:102498002BF02CC02CF02DC02DF01200000E0401E2
:1024A800286F000E0401296F3AD03F8E040128815D
:1024B8005104D8A440D0040128833DD03F8E3BD09E
:1024C8003F8E040124BF0BD0040124510F0B016E71
:1024D8000150020DD30EF324D96E000E0AD0040168
:1024E80024510F0B016E0150020D420EF324D96ED8
:1024F800000EF420DA6EDECF02F0DDCF03F002C06A
:10250800D9FF03C0DAFFDFAE16D002C0D9FF03C07F
:10251800DAFFDFA410D0010E0401286F0CD00401EB
:1025280020511F0B000AD8B4C0D7010AD8B4C6D7A7
:10253800030AD8B4C5D73FAE1200280E3C6E040E6D
:102548003D6E3F80020E406E1200000E00018A6F41
:102558008E0E0001896F000184AF15D00001841F21
:10256800831F821F816D000E822383238423010E23
:1025780000018A6F08D00001D890843383338233F6
:1025880081330001892B000E000181150001856F40
:10259800000E000182150001866F000E00018315F0
:1025A8000001876FFF0E000184150001886F00018C
:1025B8008551000186110001871100018811D8A4F6
:1025C800DAD781C02BF082C02CF083C02DF089C0EF
:1025D8002EF08AC02FF0FBEC11F02BC081F02CC03C
:1025E80082F02DC083F01200000E536E000E000121
:1025F800F56F020E5918D8A41FD020EE01F04E50E6
:10260800D9264F50DA22080EDF6E20EE02F04E5027
:10261800D9264F50DA22280EDE6E040EDD6E4EC02B
:10262800D9FF4FC0DAFF480EDF6E4EC0D9FF4FC04A
:10263800DAFF000EDB8E120040500401265D415087
:1026480004012759D8B004D026C440F027C441F06B
:102658006DEC0FF020EE02F04250D9264350DA22FA
:10266800280EDE6E040EDD6E42C0D9FF43C0DAFFCD
:10267800480EDF6E42C0D9FF43C0DAFF000EDB8E82
:102688001200066E000E076E040E086E0150026EF0
:10269800036AD890023603360650046E056AD8904D
:1026A80004360536D8900436053602500426035001
:1026B8000522D89004360536D890043605360450DD
:1026C80007260550082207C0D9FF08C0DAFFDF9E99
:1026D8000150D8A407D00650020DD30EF324D96EAA
:1026E800000E06D00650020D420EF324D96E000EDD
:1026F800F420DA6E07C0DEFF08C0DDFF07C0D9FF8F
:1027080008C0DAFFDF9C20EE04F00750D9260850F5
:10271800DA22DF8C12002B502C102D10D8A40FD0E9
:102728002EC0D9FF2FC0DAFF000EDE6E000EDD6E60
:10273800000E2B6E000E2C6E000E2D6E12002D500A
:102748007F0B306E316AD890303631362EC0D9FFC3
:102758002FC0DAFF30C0DEFF31C0DDFF2CAE03D062
:10276800306A302A01D0306A30502EC0D9FF2FC0CD
:10277800DAFFDE12000EDD122EC0D9FF2FC0DAFFFD
:10278800820EDE26FF0EDD222D802D822D842D86E1
:102798002D882D8A2D9C2C9E2BC02BF02CC02CF024
:1027A8002DC02DF012002DAE16D02BC031F02CC04C
:1027B80032F02DC033F0311E321E331E312A000E86
:1027C80032223322000E31242B6E000E32202C6E62
:1027D800800E33202D6E30AE16D02EC031F02FC0B3
:1027E80032F030C033F0311E321E331E312A000E53
:1027F80032223322000E31242E6E000E32202F6E2C
:10280800800E3320306E000E2B1A000E2C1A800E0C
:102818002D1A000E2E1A000E2F1A800E301A2E5066
:102828002B5C2F502C5830502D58D8B002D0D8904F
:102838001200D88012002D0E586E5EC01BF0FD0EDF
:102848001B16D8A438D05EC01BF0D8901B323F0EA0
:102858001B161B50040D000EF3244C6E040EF420BE
:102868004D6E4CC04EF04DC04FF0040E4E1A4CC089
:10287800D9FF4DC0DAFFDF30E8320F0B0D0AD8A4BC
:1028880017D0200E016E040E026E20EE02F04C509E
:10289800D9264D50DA22DECF03F0DDCF04F0000E4A
:1028A800066E080E056E15EC17F067EC14F01200B2
:1028B80076EC16F012005E50FD0B040AD8A4120044
:1028C80092EC10F01200000E5B6E000E546E000EBB
:1028D800536E000E0001F56F000E506E000E596E1B
:1028E80042C0D9FF43C0DAFF7F0EDF16040E421A3A
:1028F80042C0D9FF43C0DAFF7F0EDF16040E421A2A
:102908004EC0D9FF4FC0DAFF7F0EDF16000E3F6EB4
:10291800000E416E000E406E000E376E000E396ECE
:10292800000E386E96EC0EF0000E0E6E030E0D6E55
:10293800000E0F6E000E106E000E126E000E116E5D
:10294800A9EC14F0CCEC0CF0120017D0EAEC14F05F
:1029580003EC0FF01200EAEC14F0010E33EC19F05E
:102968001200EAEC14F0020E33EC19F012008FECAE
:1029780018F0120045EC0DF012000DC013F00EC057
:1029880014F01450000AD8B404D07F0AD8A4120056
:102998001AD01350010AD8B4EAD7030AD8B41200DF
:1029A800010AD8B4E7D7060AD8B41200770AD8B40F
:1029B8001200010AD8B4CAD7070AD8B4D2D7010A74
:1029C800D8A41200C8D71350FF0A12006DA236D03F
:1029D800010EF9EC17F0120046044710D8A404D0F1
:1029E800010EDEEC17F02FD04B0E46184710D8A476
:1029F80004D0010EF9EC17F026D0475004E1970EE9
:102A0800465CD8A020D0000E476E000E466E1BD044
:102A180046044710D8A404D0010EDEEC17F013D0FA
:102A2800320E46184710D8A404D0010EF9EC17F05E
:102A38000AD0B70E465C030E4758E3D75550200A14
:102A4800D8B4CAD7E5D7464A472A12008E0E336E45
:102A580007D00001D8906333623361336033332A7F
:102A6800000E000160150001646F000E0001611581
:102A78000001656F000E000162150001666FFF0E10
:102A8800000163150001676F0001645100016511C1
:102A98000001661100016711D8A4DBD760C02BF0D4
:102AA80061C02CF062C02DF033C02EF0000E2F6EE6
:102AB800FBEC11F02BC060F02CC061F02DC062F06F
:102AC8001200C580C5B0FED79BEC19F0D00E47ECBC
:102AD80016F09BEC19F06B0E47EC16F09BEC19F016
:102AE800020E47EC16F09BEC19F0000E47EC16F0BE
:102AF8009BEC19F0C584C5B4FED7C580C5B0FED718
:102B08009BEC19F0D00E47EC16F09BEC19F01B0E5D
:102B180047EC16F09BEC19F0000E47EC16F09BEC16
:102B280019F0000E47EC16F09BEC19F0C584C5A40B
:102B38001200FDD7000E956E8C9C8C9E8C8A00F03E
:102B4800FA0E2E6E580EE82EFED72E2EFCD700D089
:102B5800030EBCEC18F04E0E2E6EEB0EE82EFED7D0
:102B68002E2EFCD700F0030EBCEC18F0100E2E6EC3
:102B7800940EE82EFED72E2EFCD700D0030EBCEC08
:102B880018F04E0E2E6EEB0EE82EFED72E2EFCD72A
:102B980000F0020EBCEC18F02C0E90EC19F00F0EA1
:102BA80090EC19F012000600E9CF1FF0EACF20F0F0
:102BB800E1CF21F0E2CF22F0D9CF23F0DACF24F011
:102BC800F3CF25F0F4CF26F0F6CF27F0F7CF28F093
:102BD800F8CF29F0F5CF2AF018EC0AF02AC0F5FF53
:102BE80029C0F8FF28C0F7FF27C0F6FF26C0F4FF6A
:102BF80025C0F3FF24C0DAFF23C0D9FF22C0E2FFBB
:102C080021C0E1FF20C0EAFF1FC0E9FF1EC0FBFF93
:102C18001DC0FAFF5F92110001011A6B196B186B46
:102C280000EEC5F0340EEE6AE806FDE100EE34F081
:102C38002B0EEE6AE806FDE1080EF66E330EF76E0F
:102C4800000EF86E01EE00F010EE18F00900F5CF56
:102C5800EEFFE550E150FAE1480EF66E330EF76EDE
:102C6800000EF86E00EEF9F010EE05F00900F5CF51
:102C7800EEFFE550E150FAE15F905F92000EF86ECA
:102C8800000194EF03F02C6E2CC0C9FFC6AE02D031
:102C9800FF0E1200C6500F0B080AD8B40FD0C6504A
:102CA8000F0B0B0AD8B40AD0C6889EA6FED7C7A4B5
:102CB800C7B002D0FE0E1200000E1200C6500F0B55
:102CC800080AD8B405D0C6500F0B0B0AD8A41200B6
:102CD800C7B0FED79BEC19F0C5AC02D0FE0E1200AF
:102CE800000E1200020E5918D8A403D0CAEC0BF03B
:102CF8001200000E596E5050D8A41FD020EE01F0DB
:102D08004E50D9264F50DA22080EDF6E20EE02F020
:102D18004E50D9264F50DA22200EDE6E040EDD6E9C
:102D28004EC0D9FF4FC0DAFF0C0EDF6E4EC0D9FF80
:102D38004FC0DAFF000EDB8E1200000E506E12003C
:102D48002CC0E3F02DC0E4F02EC0E5F02FC0E6F073
:102D580030C0E7F031C0E8F0010E71EC17F0326EC8
:102D680032500001C619D8B4120032C0C6F0325031
:102D7800D8A412000001CA51D8A402D0010E01D073
:102D8800000E0001CA6F000E0001CE6F000E000198
:102D9800C56F1200000184510001851100018611E0
:102DA800D8B409D0000E0001841B000E0001851B59
:102DB800800E0001861B81C075F082C076F083C04A
:102DC80077F084C078F085C079F086C07AF04BEC53
:102DD80001F075C081F076C082F077C083F01200F0
:102DE80070A01DD04CC0D9FF4DC0DAFF800EDE1890
:102DF800D8A414D042C0D9FF43C0DAFF840EDE182D
:102E0800D8A40CD04CC0D9FF4DC0DAFF0C0EDF6E31
:102E18004CC0D9FF4DC0DAFF000EDB8E7090689A67
:102E2800120003C009F004C00AF001C007F002C094
:102E380008F00ED009C0D9FF0AC0DAFF07C0E1FFC9
:102E480008C0E2FFDFCFE7FF094A0A2A074A082A33
:102E58000506D8A006060528EDE10628D8B4120014
:102E6800E9D7000E336E000161AF07D00001606D35
:102E7800611FD8B0612B010E336E60C02BF061C0AA
:102E88002CF02D6A8E0E2E6E33C02FF0FBEC11F055
:102E98002BC060F02CC061F02DC062F012000C6EE7
:102EA80009A405D0000E016E0C5045EC13F009A2E0
:102EB80005D0010E016E0C5045EC13F00C50010DBD
:102EC800700EF3240A6E0F0EF4200B6E0AC0D9FFA1
:102ED8000BC0DAFF09C0DFFF12002B6E0ED081B8DD
:102EE80002D0010E1200000E120081BA02D0010EAB
:102EF8001200000E1200000E12002B50000AD8B467
:102F0800FAD7010AD8B4EBD7030AD8B4EED7000E23
:102F180012002B6E08D0959012009592120095948D
:102F28001200959612002B50000AD8B41200010A1C
:102F3800D8B4F1D7030AD8B4F0D7010AD8B4EFD778
:102F4800070AD8A41200EDD7016E08D09590120098
:102F58009592120095941200959612000150000A5D
:102F6800D8B41200010AD8B4F1D7030AD8B4F0D7FC
:102F7800010AD8B4EFD7070AD8A41200EDD7046E17
:102F88000450D8A412000450040DC50E026E000EA1
:102F9800036E060E0226000E0322F3500226F4509A
:102FA8000322020E0224D96E000E0320DA6E01C03D
:102FB800DFFF1200016E08D08C8012008C82120094
:102FC8008C8412008C8612000150000AD8B41200BA
:102FD800010AD8B4F1D7030AD8B4F0D7010AD8B493
:102FE800EFD7070AD8A41200EDD7016E08D08C904D
:102FF80012008C9212008C9412008C9612000150D0
:10300800000AD8B41200010AD8B4F1D7030AD8B418
:10301800F0D7010AD8B4EFD7070AD8A41200EDD721
:10302800000E326E000E316E0BD031502F24D96E47
:1030380032503020DA6EDF50FBEC18F0314A322A79
:1030480031502F24D96E32503020DA6EDF50D8B488
:103058001200EBD7000E526E000E0E6E740E0D6E3F
:10306800000E0F6E000E106E000E126E000E116E26
:10307800A9EC14F06D92699401D0689468B4FDD7F6
:10308800000E0001F66F12005550D8A41200000E71
:103098006D6E000E696E160E6F6E9F0E6B6E7B0E58
:1030A800696ED08EA28AA08AF28E01D06D866DA636
:1030B800FDD7010E556E1200000172510001731107
:1030C80000017411D8B409D0000E0001721B000E63
:1030D8000001731B800E0001741B72C072F073C074
:1030E80073F074C074F01200698468986D82010EE0
:1030F800526E000E0001F66F000E0E6E750E0D6E0C
:10310800000E0F6E000E106E000E126E000E116E85
:10311800A9EC14F01200010E0001CA6F000E0001A4
:10312800CB6F000E0001CC6F000E0001C56F000EC2
:103138000001C96F000EC86F1A0E096E010E53EC1C
:1031480017F012002BC031F02CC032F008D031C07B
:10315800D9FF32C0DAFF2DC0DFFF314A322A2F06ED
:10316800D8A030062F28F3E13028D8B41200EFD7C2
:103178002C6E8C50F00B2C248C6E8C9A110E2B6EAE
:10318800AC0EE82EFED72B2EFCD78C8A200E2B6E89
:103198002A0EE82EFED72B2EFCD7120001C007F00E
:1031A80002C008F008D007C0D9FF08C0DAFF03C082
:1031B800DFFF074A082A0506D8A006060528F3E116
:1031C8000628D8B41200EFD72B502D02F3CF2FF0DA
:1031D800F4CF30F02B502E02F35030262C502D0215
:1031E800F35030262FC02BF030C02CF012002E6E7A
:1031F8008C8E4E0E2D6EEB0EE82EFED72D2EFCD7A4
:1032080000F02E380F0BBCEC18F02E500F0BBCEC56
:1032180018F01200010E0001CF27000ED023D12391
:10322800D2235250D8A412000001F62B0001F65107
:10323800D8A412000001F66912002C6E07D0010E06
:103248008DEC17F0010E45EC19F012002C50000A15
:10325800D8B4F5D7010AD8B41200030A1200026ED6
:1032680007D0010EA8EC17F0010E56EC19F0120069
:103278000250000AD8B4F5D7010AD8B41200030ADC
:1032880012002B6E04D093881200938A12002B50E0
:10329800000AD8B41200010AD8B4F5D7030AD8A492
:1032A8001200F3D7016E04D093881200938A12009B
:1032B8000150000AD8B41200010AD8B4F5D7030A9D
:1032C800D8A41200F3D72C6E3F0EC716000EC66E98
:1032D800000EC56E2C50C6122B50C71293829380D5
:1032E800C68A1200C6500F0B080AD8B404D0C650BC
:1032F8000F0B0B0AD8B4C586C7A0FED7C950120059
:1033080047583D0047593D00475A3D0041583D0048
:1033180041593D00415A3D002D6E8C9E2D380F0BB2
:10332800BCEC18F02D500F0BBCEC18F01200C5CFF8
:103338002BF01F0E2B16D8A4FAD7C7A41200F7D764
:063348000180387CFC004E
:107EE80000FA7FF97E5F7FFF00010000FF00018D2F
:107EF8007F34034D006900630072006F00630068FF
:107F08000069007000200054006500630068006E7E
:107F1800006F006C006F0067007900200049006E58
:107F28000063002E0005010902A1010901A1000555
:107F38000919012903150025019503750181029589
:107F480001750581010501093009311581257F7504
:107F58000895028106C0C02E034D006F007500739E
:107F6800006500200049006E0020006100200053D9
:107F78000071007500610072006500200044006512
:107F8800006D006F0009022200010100C0320904DF
:107F98000000010301020009211101000122320041
:107FA8000705810303000100803F72313FFE753EE3
:107FB80058633D951D3CC5AE3A7921399480379375
:107FC800A73556153400000000803FF0FFBEE2A937
:107FD8003E8376BEAE2B3E3CC3BDD2133D78D3BBA9
:107FE8001201000200000008D8040000030001028A
:087FF80000010403090400006C
:020000040020DA
:08000000FFFFFFFFFFFFFFFF00
:020000040030CA
:0E000000240E3F1EFF0181FF0FC00FE00F40D6
:00000001FF
